{
  "contractName": "TheoDoiSanPham",
  "abi": [
    {
      "anonymous": false,
      "inputs": [
        {
          "indexed": false,
          "internalType": "string",
          "name": "idSanPham",
          "type": "string"
        },
        {
          "indexed": false,
          "internalType": "string",
          "name": "tenTrangThai",
          "type": "string"
        },
        {
          "indexed": false,
          "internalType": "string",
          "name": "thoiGian",
          "type": "string"
        },
        {
          "indexed": false,
          "internalType": "string",
          "name": "diaDiem",
          "type": "string"
        },
        {
          "indexed": false,
          "internalType": "string",
          "name": "loaiTrangThai",
          "type": "string"
        },
        {
          "indexed": false,
          "internalType": "string",
          "name": "moTaChiTiet",
          "type": "string"
        }
      ],
      "name": "CapNhatTrangThai",
      "type": "event"
    },
    {
      "anonymous": false,
      "inputs": [
        {
          "indexed": false,
          "internalType": "string",
          "name": "idSanPham",
          "type": "string"
        },
        {
          "indexed": false,
          "internalType": "string",
          "name": "tenSanPham",
          "type": "string"
        }
      ],
      "name": "TaoSanPham",
      "type": "event"
    },
    {
      "inputs": [
        {
          "internalType": "uint256",
          "name": "",
          "type": "uint256"
        }
      ],
      "name": "danhSachMaSanPham",
      "outputs": [
        {
          "internalType": "string",
          "name": "",
          "type": "string"
        }
      ],
      "stateMutability": "view",
      "type": "function",
      "constant": true
    },
    {
      "inputs": [
        {
          "internalType": "string",
          "name": "",
          "type": "string"
        }
      ],
      "name": "danhSachSanPham",
      "outputs": [
        {
          "internalType": "string",
          "name": "id",
          "type": "string"
        },
        {
          "internalType": "string",
          "name": "ten",
          "type": "string"
        },
        {
          "internalType": "string",
          "name": "nhaSanXuat",
          "type": "string"
        },
        {
          "internalType": "string",
          "name": "loaiSanPham",
          "type": "string"
        },
        {
          "internalType": "string",
          "name": "kichThuoc",
          "type": "string"
        },
        {
          "internalType": "string",
          "name": "trongLuong",
          "type": "string"
        },
        {
          "internalType": "string",
          "name": "hanSuDung",
          "type": "string"
        }
      ],
      "stateMutability": "view",
      "type": "function",
      "constant": true
    },
    {
      "inputs": [
        {
          "internalType": "string",
          "name": "",
          "type": "string"
        },
        {
          "internalType": "uint256",
          "name": "",
          "type": "uint256"
        }
      ],
      "name": "lichSuTrangThaiSanPham",
      "outputs": [
        {
          "internalType": "string",
          "name": "ten",
          "type": "string"
        },
        {
          "internalType": "string",
          "name": "thoiGian",
          "type": "string"
        },
        {
          "internalType": "string",
          "name": "diaDiem",
          "type": "string"
        },
        {
          "internalType": "string",
          "name": "loaiTrangThai",
          "type": "string"
        },
        {
          "internalType": "string",
          "name": "moTaChiTiet",
          "type": "string"
        }
      ],
      "stateMutability": "view",
      "type": "function",
      "constant": true
    },
    {
      "inputs": [
        {
          "internalType": "string",
          "name": "",
          "type": "string"
        }
      ],
      "name": "maSoSanPhamDaTonTai",
      "outputs": [
        {
          "internalType": "bool",
          "name": "",
          "type": "bool"
        }
      ],
      "stateMutability": "view",
      "type": "function",
      "constant": true
    },
    {
      "inputs": [
        {
          "internalType": "string",
          "name": "id",
          "type": "string"
        },
        {
          "internalType": "string",
          "name": "ten",
          "type": "string"
        },
        {
          "internalType": "string",
          "name": "nhaSanXuat",
          "type": "string"
        },
        {
          "internalType": "string",
          "name": "loaiSanPham",
          "type": "string"
        },
        {
          "internalType": "string",
          "name": "kichThuoc",
          "type": "string"
        },
        {
          "internalType": "string",
          "name": "trongLuong",
          "type": "string"
        },
        {
          "internalType": "string",
          "name": "hanSuDung",
          "type": "string"
        }
      ],
      "name": "taoSanPham",
      "outputs": [],
      "stateMutability": "nonpayable",
      "type": "function"
    },
    {
      "inputs": [
        {
          "internalType": "string",
          "name": "idSanPham",
          "type": "string"
        },
        {
          "internalType": "string",
          "name": "tenTrangThai",
          "type": "string"
        },
        {
          "internalType": "string",
          "name": "thoiGian",
          "type": "string"
        },
        {
          "internalType": "string",
          "name": "diaDiem",
          "type": "string"
        },
        {
          "internalType": "string",
          "name": "loaiTrangThai",
          "type": "string"
        },
        {
          "internalType": "string",
          "name": "moTaChiTiet",
          "type": "string"
        }
      ],
      "name": "capNhatTrangThai",
      "outputs": [],
      "stateMutability": "nonpayable",
      "type": "function"
    },
    {
      "inputs": [
        {
          "internalType": "string",
          "name": "idSanPham",
          "type": "string"
        }
      ],
      "name": "xemLichSuTrangThaiSanPham",
      "outputs": [
        {
          "components": [
            {
              "internalType": "string",
              "name": "ten",
              "type": "string"
            },
            {
              "internalType": "string",
              "name": "thoiGian",
              "type": "string"
            },
            {
              "internalType": "string",
              "name": "diaDiem",
              "type": "string"
            },
            {
              "internalType": "string",
              "name": "loaiTrangThai",
              "type": "string"
            },
            {
              "internalType": "string",
              "name": "moTaChiTiet",
              "type": "string"
            }
          ],
          "internalType": "struct TheoDoiSanPham.TrangThai[]",
          "name": "",
          "type": "tuple[]"
        }
      ],
      "stateMutability": "view",
      "type": "function",
      "constant": true
    },
    {
      "inputs": [],
      "name": "layDanhSachSanPham",
      "outputs": [
        {
          "components": [
            {
              "internalType": "string",
              "name": "id",
              "type": "string"
            },
            {
              "internalType": "string",
              "name": "ten",
              "type": "string"
            },
            {
              "internalType": "string",
              "name": "nhaSanXuat",
              "type": "string"
            },
            {
              "internalType": "string",
              "name": "loaiSanPham",
              "type": "string"
            },
            {
              "internalType": "string",
              "name": "kichThuoc",
              "type": "string"
            },
            {
              "internalType": "string",
              "name": "trongLuong",
              "type": "string"
            },
            {
              "internalType": "string",
              "name": "hanSuDung",
              "type": "string"
            }
          ],
          "internalType": "struct TheoDoiSanPham.SanPham[]",
          "name": "",
          "type": "tuple[]"
        }
      ],
      "stateMutability": "view",
      "type": "function",
      "constant": true
    }
  ],
  "bytecode": "0x608060405234801561000f575f80fd5b506125c38061001d5f395ff3fe608060405234801561000f575f80fd5b5060043610610086575f3560e01c806372d33e671161005957806372d33e6714610126578063823dafef1461015c578063b86a643e1461018c578063f9f01abb146101aa57610086565b806303dea9261461008a5780633e1bb02c146100a657806355f63677146100d6578063607048bd1461010a575b5f80fd5b6100a4600480360381019061009f91906116ef565b6101da565b005b6100c060048036038101906100bb9190611853565b61036b565b6040516100cd91906118f8565b60405180910390f35b6100f060048036038101906100eb9190611918565b610410565b604051610101959493929190611972565b60405180910390f35b610124600480360381019061011f91906119e6565b610712565b005b610140600480360381019061013b9190611b47565b610911565b6040516101539796959493929190611b8e565b60405180910390f35b61017660048036038101906101719190611b47565b610d11565b6040516101839190611dbe565b60405180910390f35b61019461105a565b6040516101a19190611f5c565b60405180910390f35b6101c460048036038101906101bf9190611b47565b611530565b6040516101d19190611f96565b60405180910390f35b6001866040516101ea9190611fe9565b90815260200160405180910390205f9054906101000a900460ff16610244576040517f08c379a000000000000000000000000000000000000000000000000000000000815260040161023b90612049565b60405180910390fd5b5f6040518060a0016040528087815260200186815260200185815260200184815260200183815250905060028760405161027e9190611fe9565b908152602001604051809103902081908060018154018082558091505060019003905f5260205f2090600502015f909190919091505f820151815f0190816102c69190612261565b5060208201518160010190816102dc9190612261565b5060408201518160020190816102f29190612261565b5060608201518160030190816103089190612261565b50608082015181600401908161031e9190612261565b5050507f7d8a5efae2c8773245f112e1a5b61000a5f2d69813486d0d918bba1bc9abcc6f87878787878760405161035a96959493929190612330565b60405180910390a150505050505050565b5f8181548110610379575f80fd5b905f5260205f20015f91509050805461039190612094565b80601f01602080910402602001604051908101604052809291908181526020018280546103bd90612094565b80156104085780601f106103df57610100808354040283529160200191610408565b820191905f5260205f20905b8154815290600101906020018083116103eb57829003601f168201915b505050505081565b6002828051602081018201805184825260208301602085012081835280955050505050508181548110610441575f80fd5b905f5260205f2090600502015f9150915050805f01805461046190612094565b80601f016020809104026020016040519081016040528092919081815260200182805461048d90612094565b80156104d85780601f106104af576101008083540402835291602001916104d8565b820191905f5260205f20905b8154815290600101906020018083116104bb57829003601f168201915b5050505050908060010180546104ed90612094565b80601f016020809104026020016040519081016040528092919081815260200182805461051990612094565b80156105645780601f1061053b57610100808354040283529160200191610564565b820191905f5260205f20905b81548152906001019060200180831161054757829003601f168201915b50505050509080600201805461057990612094565b80601f01602080910402602001604051908101604052809291908181526020018280546105a590612094565b80156105f05780601f106105c7576101008083540402835291602001916105f0565b820191905f5260205f20905b8154815290600101906020018083116105d357829003601f168201915b50505050509080600301805461060590612094565b80601f016020809104026020016040519081016040528092919081815260200182805461063190612094565b801561067c5780601f106106535761010080835404028352916020019161067c565b820191905f5260205f20905b81548152906001019060200180831161065f57829003601f168201915b50505050509080600401805461069190612094565b80601f01602080910402602001604051908101604052809291908181526020018280546106bd90612094565b80156107085780601f106106df57610100808354040283529160200191610708565b820191905f5260205f20905b8154815290600101906020018083116106eb57829003601f168201915b5050505050905085565b6001876040516107229190611fe9565b90815260200160405180910390205f9054906101000a900460ff161561077d576040517f08c379a000000000000000000000000000000000000000000000000000000000815260040161077490612403565b60405180910390fd5b6001808860405161078e9190611fe9565b90815260200160405180910390205f6101000a81548160ff0219169083151502179055505f87908060018154018082558091505060019003905f5260205f20015f9091909190915090816107e29190612261565b506040518060e00160405280888152602001878152602001868152602001858152602001848152602001838152602001828152506003886040516108269190611fe9565b90815260200160405180910390205f820151815f0190816108479190612261565b50602082015181600101908161085d9190612261565b5060408201518160020190816108739190612261565b5060608201518160030190816108899190612261565b50608082015181600401908161089f9190612261565b5060a08201518160050190816108b59190612261565b5060c08201518160060190816108cb9190612261565b509050507ff3dee5cd5201fbefb485a4edd068381a5a3b2e4dad9782faf243ab36eb7b7fea8787604051610900929190612421565b60405180910390a150505050505050565b6003818051602081018201805184825260208301602085012081835280955050505050505f91509050805f01805461094890612094565b80601f016020809104026020016040519081016040528092919081815260200182805461097490612094565b80156109bf5780601f10610996576101008083540402835291602001916109bf565b820191905f5260205f20905b8154815290600101906020018083116109a257829003601f168201915b5050505050908060010180546109d490612094565b80601f0160208091040260200160405190810160405280929190818152602001828054610a0090612094565b8015610a4b5780601f10610a2257610100808354040283529160200191610a4b565b820191905f5260205f20905b815481529060010190602001808311610a2e57829003601f168201915b505050505090806002018054610a6090612094565b80601f0160208091040260200160405190810160405280929190818152602001828054610a8c90612094565b8015610ad75780601f10610aae57610100808354040283529160200191610ad7565b820191905f5260205f20905b815481529060010190602001808311610aba57829003601f168201915b505050505090806003018054610aec90612094565b80601f0160208091040260200160405190810160405280929190818152602001828054610b1890612094565b8015610b635780601f10610b3a57610100808354040283529160200191610b63565b820191905f5260205f20905b815481529060010190602001808311610b4657829003601f168201915b505050505090806004018054610b7890612094565b80601f0160208091040260200160405190810160405280929190818152602001828054610ba490612094565b8015610bef5780601f10610bc657610100808354040283529160200191610bef565b820191905f5260205f20905b815481529060010190602001808311610bd257829003601f168201915b505050505090806005018054610c0490612094565b80601f0160208091040260200160405190810160405280929190818152602001828054610c3090612094565b8015610c7b5780601f10610c5257610100808354040283529160200191610c7b565b820191905f5260205f20905b815481529060010190602001808311610c5e57829003601f168201915b505050505090806006018054610c9090612094565b80601f0160208091040260200160405190810160405280929190818152602001828054610cbc90612094565b8015610d075780601f10610cde57610100808354040283529160200191610d07565b820191905f5260205f20905b815481529060010190602001808311610cea57829003601f168201915b5050505050905087565b6060600282604051610d239190611fe9565b9081526020016040518091039020805480602002602001604051908101604052809291908181526020015f905b8282101561104f578382905f5260205f2090600502016040518060a00160405290815f82018054610d8090612094565b80601f0160208091040260200160405190810160405280929190818152602001828054610dac90612094565b8015610df75780601f10610dce57610100808354040283529160200191610df7565b820191905f5260205f20905b815481529060010190602001808311610dda57829003601f168201915b50505050508152602001600182018054610e1090612094565b80601f0160208091040260200160405190810160405280929190818152602001828054610e3c90612094565b8015610e875780601f10610e5e57610100808354040283529160200191610e87565b820191905f5260205f20905b815481529060010190602001808311610e6a57829003601f168201915b50505050508152602001600282018054610ea090612094565b80601f0160208091040260200160405190810160405280929190818152602001828054610ecc90612094565b8015610f175780601f10610eee57610100808354040283529160200191610f17565b820191905f5260205f20905b815481529060010190602001808311610efa57829003601f168201915b50505050508152602001600382018054610f3090612094565b80601f0160208091040260200160405190810160405280929190818152602001828054610f5c90612094565b8015610fa75780601f10610f7e57610100808354040283529160200191610fa7565b820191905f5260205f20905b815481529060010190602001808311610f8a57829003601f168201915b50505050508152602001600482018054610fc090612094565b80601f0160208091040260200160405190810160405280929190818152602001828054610fec90612094565b80156110375780601f1061100e57610100808354040283529160200191611037565b820191905f5260205f20905b81548152906001019060200180831161101a57829003601f168201915b50505050508152505081526020019060010190610d50565b505050509050919050565b60605f808054905067ffffffffffffffff81111561107b5761107a6115cb565b5b6040519080825280602002602001820160405280156110b457816020015b6110a1611565565b8152602001906001900390816110995790505b5090505f5b5f805490508110156115285760035f82815481106110da576110d9612456565b5b905f5260205f20016040516110ef9190612503565b90815260200160405180910390206040518060e00160405290815f8201805461111790612094565b80601f016020809104026020016040519081016040528092919081815260200182805461114390612094565b801561118e5780601f106111655761010080835404028352916020019161118e565b820191905f5260205f20905b81548152906001019060200180831161117157829003601f168201915b505050505081526020016001820180546111a790612094565b80601f01602080910402602001604051908101604052809291908181526020018280546111d390612094565b801561121e5780601f106111f55761010080835404028352916020019161121e565b820191905f5260205f20905b81548152906001019060200180831161120157829003601f168201915b5050505050815260200160028201805461123790612094565b80601f016020809104026020016040519081016040528092919081815260200182805461126390612094565b80156112ae5780601f10611285576101008083540402835291602001916112ae565b820191905f5260205f20905b81548152906001019060200180831161129157829003601f168201915b505050505081526020016003820180546112c790612094565b80601f01602080910402602001604051908101604052809291908181526020018280546112f390612094565b801561133e5780601f106113155761010080835404028352916020019161133e565b820191905f5260205f20905b81548152906001019060200180831161132157829003601f168201915b5050505050815260200160048201805461135790612094565b80601f016020809104026020016040519081016040528092919081815260200182805461138390612094565b80156113ce5780601f106113a5576101008083540402835291602001916113ce565b820191905f5260205f20905b8154815290600101906020018083116113b157829003601f168201915b505050505081526020016005820180546113e790612094565b80601f016020809104026020016040519081016040528092919081815260200182805461141390612094565b801561145e5780601f106114355761010080835404028352916020019161145e565b820191905f5260205f20905b81548152906001019060200180831161144157829003601f168201915b5050505050815260200160068201805461147790612094565b80601f01602080910402602001604051908101604052809291908181526020018280546114a390612094565b80156114ee5780601f106114c5576101008083540402835291602001916114ee565b820191905f5260205f20905b8154815290600101906020018083116114d157829003601f168201915b50505050508152505082828151811061150a57611509612456565b5b6020026020010181905250808061152090612546565b9150506110b9565b508091505090565b6001818051602081018201805184825260208301602085012081835280955050505050505f915054906101000a900460ff1681565b6040518060e00160405280606081526020016060815260200160608152602001606081526020016060815260200160608152602001606081525090565b5f604051905090565b5f80fd5b5f80fd5b5f80fd5b5f80fd5b5f601f19601f8301169050919050565b7f4e487b71000000000000000000000000000000000000000000000000000000005f52604160045260245ffd5b611601826115bb565b810181811067ffffffffffffffff821117156116205761161f6115cb565b5b80604052505050565b5f6116326115a2565b905061163e82826115f8565b919050565b5f67ffffffffffffffff82111561165d5761165c6115cb565b5b611666826115bb565b9050602081019050919050565b828183375f83830152505050565b5f61169361168e84611643565b611629565b9050828152602081018484840111156116af576116ae6115b7565b5b6116ba848285611673565b509392505050565b5f82601f8301126116d6576116d56115b3565b5b81356116e6848260208601611681565b91505092915050565b5f805f805f8060c08789031215611709576117086115ab565b5b5f87013567ffffffffffffffff811115611726576117256115af565b5b61173289828a016116c2565b965050602087013567ffffffffffffffff811115611753576117526115af565b5b61175f89828a016116c2565b955050604087013567ffffffffffffffff8111156117805761177f6115af565b5b61178c89828a016116c2565b945050606087013567ffffffffffffffff8111156117ad576117ac6115af565b5b6117b989828a016116c2565b935050608087013567ffffffffffffffff8111156117da576117d96115af565b5b6117e689828a016116c2565b92505060a087013567ffffffffffffffff811115611807576118066115af565b5b61181389828a016116c2565b9150509295509295509295565b5f819050919050565b61183281611820565b811461183c575f80fd5b50565b5f8135905061184d81611829565b92915050565b5f60208284031215611868576118676115ab565b5b5f6118758482850161183f565b91505092915050565b5f81519050919050565b5f82825260208201905092915050565b5f5b838110156118b557808201518184015260208101905061189a565b5f8484015250505050565b5f6118ca8261187e565b6118d48185611888565b93506118e4818560208601611898565b6118ed816115bb565b840191505092915050565b5f6020820190508181035f83015261191081846118c0565b905092915050565b5f806040838503121561192e5761192d6115ab565b5b5f83013567ffffffffffffffff81111561194b5761194a6115af565b5b611957858286016116c2565b92505060206119688582860161183f565b9150509250929050565b5f60a0820190508181035f83015261198a81886118c0565b9050818103602083015261199e81876118c0565b905081810360408301526119b281866118c0565b905081810360608301526119c681856118c0565b905081810360808301526119da81846118c0565b90509695505050505050565b5f805f805f805f60e0888a031215611a0157611a006115ab565b5b5f88013567ffffffffffffffff811115611a1e57611a1d6115af565b5b611a2a8a828b016116c2565b975050602088013567ffffffffffffffff811115611a4b57611a4a6115af565b5b611a578a828b016116c2565b965050604088013567ffffffffffffffff811115611a7857611a776115af565b5b611a848a828b016116c2565b955050606088013567ffffffffffffffff811115611aa557611aa46115af565b5b611ab18a828b016116c2565b945050608088013567ffffffffffffffff811115611ad257611ad16115af565b5b611ade8a828b016116c2565b93505060a088013567ffffffffffffffff811115611aff57611afe6115af565b5b611b0b8a828b016116c2565b92505060c088013567ffffffffffffffff811115611b2c57611b2b6115af565b5b611b388a828b016116c2565b91505092959891949750929550565b5f60208284031215611b5c57611b5b6115ab565b5b5f82013567ffffffffffffffff811115611b7957611b786115af565b5b611b85848285016116c2565b91505092915050565b5f60e0820190508181035f830152611ba6818a6118c0565b90508181036020830152611bba81896118c0565b90508181036040830152611bce81886118c0565b90508181036060830152611be281876118c0565b90508181036080830152611bf681866118c0565b905081810360a0830152611c0a81856118c0565b905081810360c0830152611c1e81846118c0565b905098975050505050505050565b5f81519050919050565b5f82825260208201905092915050565b5f819050602082019050919050565b5f82825260208201905092915050565b5f611c6f8261187e565b611c798185611c55565b9350611c89818560208601611898565b611c92816115bb565b840191505092915050565b5f60a083015f8301518482035f860152611cb78282611c65565b91505060208301518482036020860152611cd18282611c65565b91505060408301518482036040860152611ceb8282611c65565b91505060608301518482036060860152611d058282611c65565b91505060808301518482036080860152611d1f8282611c65565b9150508091505092915050565b5f611d378383611c9d565b905092915050565b5f602082019050919050565b5f611d5582611c2c565b611d5f8185611c36565b935083602082028501611d7185611c46565b805f5b85811015611dac5784840389528151611d8d8582611d2c565b9450611d9883611d3f565b925060208a01995050600181019050611d74565b50829750879550505050505092915050565b5f6020820190508181035f830152611dd68184611d4b565b905092915050565b5f81519050919050565b5f82825260208201905092915050565b5f819050602082019050919050565b5f60e083015f8301518482035f860152611e218282611c65565b91505060208301518482036020860152611e3b8282611c65565b91505060408301518482036040860152611e558282611c65565b91505060608301518482036060860152611e6f8282611c65565b91505060808301518482036080860152611e898282611c65565b91505060a083015184820360a0860152611ea38282611c65565b91505060c083015184820360c0860152611ebd8282611c65565b9150508091505092915050565b5f611ed58383611e07565b905092915050565b5f602082019050919050565b5f611ef382611dde565b611efd8185611de8565b935083602082028501611f0f85611df8565b805f5b85811015611f4a5784840389528151611f2b8582611eca565b9450611f3683611edd565b925060208a01995050600181019050611f12565b50829750879550505050505092915050565b5f6020820190508181035f830152611f748184611ee9565b905092915050565b5f8115159050919050565b611f9081611f7c565b82525050565b5f602082019050611fa95f830184611f87565b92915050565b5f81905092915050565b5f611fc38261187e565b611fcd8185611faf565b9350611fdd818560208601611898565b80840191505092915050565b5f611ff48284611fb9565b915081905092915050565b7f4d6120736f206b686f6e6720746f6e20746169000000000000000000000000005f82015250565b5f612033601383611888565b915061203e82611fff565b602082019050919050565b5f6020820190508181035f83015261206081612027565b9050919050565b7f4e487b71000000000000000000000000000000000000000000000000000000005f52602260045260245ffd5b5f60028204905060018216806120ab57607f821691505b6020821081036120be576120bd612067565b5b50919050565b5f819050815f5260205f209050919050565b5f6020601f8301049050919050565b5f82821b905092915050565b5f600883026121207fffffffffffffffffffffffffffffffffffffffffffffffffffffffffffffffff826120e5565b61212a86836120e5565b95508019841693508086168417925050509392505050565b5f819050919050565b5f61216561216061215b84611820565b612142565b611820565b9050919050565b5f819050919050565b61217e8361214b565b61219261218a8261216c565b8484546120f1565b825550505050565b5f90565b6121a661219a565b6121b1818484612175565b505050565b5b818110156121d4576121c95f8261219e565b6001810190506121b7565b5050565b601f821115612219576121ea816120c4565b6121f3846120d6565b81016020851015612202578190505b61221661220e856120d6565b8301826121b6565b50505b505050565b5f82821c905092915050565b5f6122395f198460080261221e565b1980831691505092915050565b5f612251838361222a565b9150826002028217905092915050565b61226a8261187e565b67ffffffffffffffff811115612283576122826115cb565b5b61228d8254612094565b6122988282856121d8565b5f60209050601f8311600181146122c9575f84156122b7578287015190505b6122c18582612246565b865550612328565b601f1984166122d7866120c4565b5f5b828110156122fe578489015182556001820191506020850194506020810190506122d9565b8683101561231b5784890151612317601f89168261222a565b8355505b6001600288020188555050505b505050505050565b5f60c0820190508181035f83015261234881896118c0565b9050818103602083015261235c81886118c0565b9050818103604083015261237081876118c0565b9050818103606083015261238481866118c0565b9050818103608083015261239881856118c0565b905081810360a08301526123ac81846118c0565b9050979650505050505050565b7f4d6120736f20646120746f6e20746169000000000000000000000000000000005f82015250565b5f6123ed601083611888565b91506123f8826123b9565b602082019050919050565b5f6020820190508181035f83015261241a816123e1565b9050919050565b5f6040820190508181035f83015261243981856118c0565b9050818103602083015261244d81846118c0565b90509392505050565b7f4e487b71000000000000000000000000000000000000000000000000000000005f52603260045260245ffd5b5f815461248f81612094565b6124998186611faf565b9450600182165f81146124b357600181146124c8576124fa565b60ff19831686528115158202860193506124fa565b6124d1856120c4565b5f5b838110156124f2578154818901526001820191506020810190506124d3565b838801955050505b50505092915050565b5f61250e8284612483565b915081905092915050565b7f4e487b71000000000000000000000000000000000000000000000000000000005f52601160045260245ffd5b5f61255082611820565b91507fffffffffffffffffffffffffffffffffffffffffffffffffffffffffffffffff820361258257612581612519565b5b60018201905091905056fea26469706673582212208d4db82907bee631e73b5e7379ff026d75b0be55590aa37a40c459d1998557d364736f6c63430008150033",
  "immutableReferences": {},
  "source": "// SPDX-License-Identifier: MIT\npragma solidity ^0.8.0;\n\ncontract TheoDoiSanPham {\n    string[] public danhSachMaSanPham;\n    mapping(string => bool) public maSoSanPhamDaTonTai;\n    \n    struct TrangThai {\n        string ten;\n        string thoiGian;\n        string diaDiem;\n        string loaiTrangThai;\n        string moTaChiTiet;\n    }\n    \n    mapping(string => TrangThai[]) public lichSuTrangThaiSanPham;\n    \n    struct SanPham {\n        string id;\n        string ten;\n        string nhaSanXuat;\n        string loaiSanPham;\n        string kichThuoc;\n        string trongLuong;\n        string hanSuDung;\n    }\n    \n    mapping(string => SanPham) public danhSachSanPham;\n    \n    event TaoSanPham(string idSanPham, string tenSanPham);\n    event CapNhatTrangThai(string idSanPham, string tenTrangThai, string thoiGian, string diaDiem, string loaiTrangThai, string moTaChiTiet);\n    \n    function taoSanPham(string memory id, string memory ten, string memory nhaSanXuat, string memory loaiSanPham, string memory kichThuoc, string memory trongLuong, string memory hanSuDung) public {\n        require(!maSoSanPhamDaTonTai[id], \"Ma so da ton tai\");\n        maSoSanPhamDaTonTai[id] = true;\n        danhSachMaSanPham.push(id);\n        \n        danhSachSanPham[id] = SanPham(id, ten, nhaSanXuat, loaiSanPham, kichThuoc, trongLuong, hanSuDung);\n        emit TaoSanPham(id, ten);\n    }\n\n    function capNhatTrangThai(string memory idSanPham, string memory tenTrangThai, string memory thoiGian, string memory diaDiem, string memory loaiTrangThai, string memory moTaChiTiet) public {\n        require(maSoSanPhamDaTonTai[idSanPham], \"Ma so khong ton tai\");\n        \n        TrangThai memory trangThai = TrangThai(tenTrangThai, thoiGian, diaDiem, loaiTrangThai, moTaChiTiet);\n        lichSuTrangThaiSanPham[idSanPham].push(trangThai);\n        \n        emit CapNhatTrangThai(idSanPham, tenTrangThai, thoiGian, diaDiem, loaiTrangThai, moTaChiTiet);\n    }\n\n    function xemLichSuTrangThaiSanPham(string memory idSanPham) public view returns (TrangThai[] memory) {\n        return lichSuTrangThaiSanPham[idSanPham];\n    }\n\n    function layDanhSachSanPham() public view returns (SanPham[] memory) {\n        SanPham[] memory danhSachSanPhamChiTiet = new SanPham[](danhSachMaSanPham.length);\n        \n        for (uint i = 0; i < danhSachMaSanPham.length; i++) {\n            danhSachSanPhamChiTiet[i] = danhSachSanPham[danhSachMaSanPham[i]];\n        }\n        \n        return danhSachSanPhamChiTiet;\n    }\n\n}\n",
  "sourcePath": "/workspaces/BlockChain/contracts/theodoiSP.sol",
  "compiler": {
    "name": "solc",
    "version": "0.8.21+commit.d9974bed.Emscripten.clang"
  },
  "schemaVersion": "3.4.16",
  "updatedAt": "2024-08-11T13:37:33.868Z",
  "networkType": "ethereum",
  "devdoc": {
    "kind": "dev",
    "methods": {},
    "version": 1
  },
  "userdoc": {
    "kind": "user",
    "methods": {},
    "version": 1
  }
}