{
  "contractName": "TheoDoiSanPham",
  "abi": [
    {
      "inputs": [],
      "stateMutability": "nonpayable",
      "type": "constructor"
    },
    {
      "anonymous": false,
      "inputs": [
        {
          "indexed": false,
          "internalType": "string",
          "name": "idSanPham",
          "type": "string"
        },
        {
          "indexed": false,
          "internalType": "string",
          "name": "tenTrangThai",
          "type": "string"
        },
        {
          "indexed": false,
          "internalType": "string",
          "name": "thoiGian",
          "type": "string"
        },
        {
          "indexed": false,
          "internalType": "string",
          "name": "diaDiem",
          "type": "string"
        },
        {
          "indexed": false,
          "internalType": "string",
          "name": "loaiTrangThai",
          "type": "string"
        },
        {
          "indexed": false,
          "internalType": "string",
          "name": "moTaChiTiet",
          "type": "string"
        }
      ],
      "name": "CapNhatTrangThai",
      "type": "event"
    },
    {
      "anonymous": false,
      "inputs": [
        {
          "indexed": false,
          "internalType": "string",
          "name": "idSanPham",
          "type": "string"
        },
        {
          "indexed": false,
          "internalType": "string",
          "name": "tenSanPham",
          "type": "string"
        }
      ],
      "name": "SanPhamDaTao",
      "type": "event"
    },
    {
      "anonymous": false,
      "inputs": [
        {
          "indexed": false,
          "internalType": "address",
          "name": "nguoiBiThuHoi",
          "type": "address"
        }
      ],
      "name": "ThuHoiUyQuyen",
      "type": "event"
    },
    {
      "anonymous": false,
      "inputs": [
        {
          "indexed": false,
          "internalType": "address",
          "name": "nguoiDuocUyQuyen",
          "type": "address"
        }
      ],
      "name": "UyQuyen",
      "type": "event"
    },
    {
      "inputs": [],
      "name": "chuSoHuu",
      "outputs": [
        {
          "internalType": "address",
          "name": "",
          "type": "address"
        }
      ],
      "stateMutability": "view",
      "type": "function"
    },
    {
      "inputs": [
        {
          "internalType": "uint256",
          "name": "",
          "type": "uint256"
        }
      ],
      "name": "danhSachNguoiUyQuyen",
      "outputs": [
        {
          "internalType": "address",
          "name": "",
          "type": "address"
        }
      ],
      "stateMutability": "view",
      "type": "function"
    },
    {
      "inputs": [
        {
          "internalType": "string",
          "name": "",
          "type": "string"
        }
      ],
      "name": "danhSachSanPham",
      "outputs": [
        {
          "internalType": "string",
          "name": "id",
          "type": "string"
        },
        {
          "internalType": "string",
          "name": "ten",
          "type": "string"
        },
        {
          "internalType": "string",
          "name": "nhaSanXuat",
          "type": "string"
        },
        {
          "internalType": "string",
          "name": "loaiSanPham",
          "type": "string"
        },
        {
          "internalType": "string",
          "name": "kichThuoc",
          "type": "string"
        },
        {
          "internalType": "string",
          "name": "trongLuong",
          "type": "string"
        },
        {
          "internalType": "string",
          "name": "hanSuDung",
          "type": "string"
        }
      ],
      "stateMutability": "view",
      "type": "function"
    },
    {
      "inputs": [
        {
          "internalType": "string",
          "name": "",
          "type": "string"
        },
        {
          "internalType": "uint256",
          "name": "",
          "type": "uint256"
        }
      ],
      "name": "lichSuTrangThaiSanPham",
      "outputs": [
        {
          "internalType": "string",
          "name": "ten",
          "type": "string"
        },
        {
          "internalType": "string",
          "name": "thoiGian",
          "type": "string"
        },
        {
          "internalType": "string",
          "name": "diaDiem",
          "type": "string"
        },
        {
          "internalType": "string",
          "name": "loaiTrangThai",
          "type": "string"
        },
        {
          "internalType": "string",
          "name": "moTaChiTiet",
          "type": "string"
        }
      ],
      "stateMutability": "view",
      "type": "function"
    },
    {
      "inputs": [
        {
          "internalType": "string",
          "name": "",
          "type": "string"
        }
      ],
      "name": "maSoSanPhamDaTonTai",
      "outputs": [
        {
          "internalType": "bool",
          "name": "",
          "type": "bool"
        }
      ],
      "stateMutability": "view",
      "type": "function"
    },
    {
      "inputs": [
        {
          "internalType": "string",
          "name": "id",
          "type": "string"
        },
        {
          "internalType": "string",
          "name": "ten",
          "type": "string"
        },
        {
          "internalType": "string",
          "name": "nhaSanXuat",
          "type": "string"
        },
        {
          "internalType": "string",
          "name": "loaiSanPham",
          "type": "string"
        },
        {
          "internalType": "string",
          "name": "kichThuoc",
          "type": "string"
        },
        {
          "internalType": "string",
          "name": "trongLuong",
          "type": "string"
        },
        {
          "internalType": "string",
          "name": "hanSuDung",
          "type": "string"
        }
      ],
      "name": "taoSanPham",
      "outputs": [],
      "stateMutability": "nonpayable",
      "type": "function"
    },
    {
      "inputs": [
        {
          "internalType": "string",
          "name": "idSanPham",
          "type": "string"
        },
        {
          "internalType": "string",
          "name": "tenTrangThai",
          "type": "string"
        },
        {
          "internalType": "string",
          "name": "thoiGian",
          "type": "string"
        },
        {
          "internalType": "string",
          "name": "diaDiem",
          "type": "string"
        },
        {
          "internalType": "string",
          "name": "loaiTrangThai",
          "type": "string"
        },
        {
          "internalType": "string",
          "name": "moTaChiTiet",
          "type": "string"
        }
      ],
      "name": "capNhatTrangThai",
      "outputs": [],
      "stateMutability": "nonpayable",
      "type": "function"
    },
    {
      "inputs": [
        {
          "internalType": "string",
          "name": "idSanPham",
          "type": "string"
        }
      ],
      "name": "xemLichSuTrangThaiSanPham",
      "outputs": [
        {
          "components": [
            {
              "internalType": "string",
              "name": "ten",
              "type": "string"
            },
            {
              "internalType": "string",
              "name": "thoiGian",
              "type": "string"
            },
            {
              "internalType": "string",
              "name": "diaDiem",
              "type": "string"
            },
            {
              "internalType": "string",
              "name": "loaiTrangThai",
              "type": "string"
            },
            {
              "internalType": "string",
              "name": "moTaChiTiet",
              "type": "string"
            }
          ],
          "internalType": "struct TheoDoiSanPham.TrangThai[]",
          "name": "",
          "type": "tuple[]"
        }
      ],
      "stateMutability": "view",
      "type": "function"
    },
    {
      "inputs": [
        {
          "internalType": "address",
          "name": "_nguoiUyQuyen",
          "type": "address"
        }
      ],
      "name": "uyQuyen",
      "outputs": [],
      "stateMutability": "nonpayable",
      "type": "function"
    },
    {
      "inputs": [
        {
          "internalType": "address",
          "name": "_nguoiBiThuHoi",
          "type": "address"
        }
      ],
      "name": "thuHoiUyQuyen",
      "outputs": [],
      "stateMutability": "nonpayable",
      "type": "function"
    },
    {
      "inputs": [],
      "name": "XemDanhSachNguoiUyQuyen",
      "outputs": [
        {
          "internalType": "address[]",
          "name": "",
          "type": "address[]"
        }
      ],
      "stateMutability": "view",
      "type": "function"
    },
    {
      "inputs": [
        {
          "internalType": "address",
          "name": "_address",
          "type": "address"
        }
      ],
      "name": "laNguoiUyQuyen",
      "outputs": [
        {
          "internalType": "bool",
          "name": "",
          "type": "bool"
        }
      ],
      "stateMutability": "view",
      "type": "function"
    }
  ],
  "bytecode": "0x608060405234801561000f575f80fd5b50335f806101000a81548173ffffffffffffffffffffffffffffffffffffffff021916908373ffffffffffffffffffffffffffffffffffffffff1602179055506125fd8061005c5f395ff3fe608060405234801561000f575f80fd5b50600436106100b2575f3560e01c806372d33e671161006f57806372d33e671461018c578063823dafef146101c2578063ca4df581146101f2578063df0fb12b14610210578063f9f01abb1461022c578063fd640efa1461025c576100b2565b806303dea926146100b657806334139115146100d257806355f63677146101025780635f25fadc14610136578063607048bd146101525780636c30c4781461016e575b5f80fd5b6100d060048036038101906100cb91906116dd565b61028c565b005b6100ec60048036038101906100e79190611868565b610465565b6040516100f991906118ad565b60405180910390f35b61011c600480360381019061011791906118f9565b61050d565b60405161012d9594939291906119cd565b60405180910390f35b610150600480360381019061014b9190611868565b61080f565b005b61016c60048036038101906101679190611a41565b6109a6565b005b610176610c02565b6040516101839190611bb1565b60405180910390f35b6101a660048036038101906101a19190611bca565b610c25565b6040516101b99796959493929190611c11565b60405180910390f35b6101dc60048036038101906101d79190611bca565b611025565b6040516101e99190611e41565b60405180910390f35b6101fa61136e565b6040516102079190611f18565b60405180910390f35b61022a60048036038101906102259190611868565b6113f9565b005b61024660048036038101906102419190611bca565b611520565b60405161025391906118ad565b60405180910390f35b61027660048036038101906102719190611f38565b611555565b6040516102839190611bb1565b60405180910390f35b61029533610465565b6102d4576040517f08c379a00000000000000000000000000000000000000000000000000000000081526004016102cb90611fd3565b60405180910390fd5b6002866040516102e4919061202b565b90815260200160405180910390205f9054906101000a900460ff1661033e576040517f08c379a00000000000000000000000000000000000000000000000000000000081526004016103359061208b565b60405180910390fd5b5f6040518060a00160405280878152602001868152602001858152602001848152602001838152509050600387604051610378919061202b565b908152602001604051809103902081908060018154018082558091505060019003905f5260205f2090600502015f909190919091505f820151815f0190816103c091906122a3565b5060208201518160010190816103d691906122a3565b5060408201518160020190816103ec91906122a3565b50606082015181600301908161040291906122a3565b50608082015181600401908161041891906122a3565b5050507f7d8a5efae2c8773245f112e1a5b61000a5f2d69813486d0d918bba1bc9abcc6f87878787878760405161045496959493929190612372565b60405180910390a150505050505050565b5f805f90505b600180549050811015610503578273ffffffffffffffffffffffffffffffffffffffff16600182815481106104a3576104a26123fb565b5b905f5260205f20015f9054906101000a900473ffffffffffffffffffffffffffffffffffffffff1673ffffffffffffffffffffffffffffffffffffffff16036104f0576001915050610508565b80806104fb90612455565b91505061046b565b505f90505b919050565b600382805160208101820180518482526020830160208501208183528095505050505050818154811061053e575f80fd5b905f5260205f2090600502015f9150915050805f01805461055e906120d6565b80601f016020809104026020016040519081016040528092919081815260200182805461058a906120d6565b80156105d55780601f106105ac576101008083540402835291602001916105d5565b820191905f5260205f20905b8154815290600101906020018083116105b857829003601f168201915b5050505050908060010180546105ea906120d6565b80601f0160208091040260200160405190810160405280929190818152602001828054610616906120d6565b80156106615780601f1061063857610100808354040283529160200191610661565b820191905f5260205f20905b81548152906001019060200180831161064457829003601f168201915b505050505090806002018054610676906120d6565b80601f01602080910402602001604051908101604052809291908181526020018280546106a2906120d6565b80156106ed5780601f106106c4576101008083540402835291602001916106ed565b820191905f5260205f20905b8154815290600101906020018083116106d057829003601f168201915b505050505090806003018054610702906120d6565b80601f016020809104026020016040519081016040528092919081815260200182805461072e906120d6565b80156107795780601f1061075057610100808354040283529160200191610779565b820191905f5260205f20905b81548152906001019060200180831161075c57829003601f168201915b50505050509080600401805461078e906120d6565b80601f01602080910402602001604051908101604052809291908181526020018280546107ba906120d6565b80156108055780601f106107dc57610100808354040283529160200191610805565b820191905f5260205f20905b8154815290600101906020018083116107e857829003601f168201915b5050505050905085565b5f8054906101000a900473ffffffffffffffffffffffffffffffffffffffff1673ffffffffffffffffffffffffffffffffffffffff163373ffffffffffffffffffffffffffffffffffffffff161461089c576040517f08c379a00000000000000000000000000000000000000000000000000000000081526004016108939061250c565b60405180910390fd5b5f5b6001805490508110156109a2578173ffffffffffffffffffffffffffffffffffffffff16600182815481106108d6576108d56123fb565b5b905f5260205f20015f9054906101000a900473ffffffffffffffffffffffffffffffffffffffff1673ffffffffffffffffffffffffffffffffffffffff160361098f576001818154811061092d5761092c6123fb565b5b905f5260205f20015f6101000a81549073ffffffffffffffffffffffffffffffffffffffff02191690557f6d5b76fe9447a701eb977518ab285822e35032af95385e95b6441a4073da4169826040516109869190611bb1565b60405180910390a15b808061099a90612455565b91505061089e565b5050565b5f8054906101000a900473ffffffffffffffffffffffffffffffffffffffff1673ffffffffffffffffffffffffffffffffffffffff163373ffffffffffffffffffffffffffffffffffffffff1614610a33576040517f08c379a0000000000000000000000000000000000000000000000000000000008152600401610a2a9061250c565b60405180910390fd5b600287604051610a43919061202b565b90815260200160405180910390205f9054906101000a900460ff1615610a9e576040517f08c379a0000000000000000000000000000000000000000000000000000000008152600401610a9590612574565b60405180910390fd5b6001600288604051610ab0919061202b565b90815260200160405180910390205f6101000a81548160ff0219169083151502179055506040518060e0016040528088815260200187815260200186815260200185815260200184815260200183815260200182815250600488604051610b17919061202b565b90815260200160405180910390205f820151815f019081610b3891906122a3565b506020820151816001019081610b4e91906122a3565b506040820151816002019081610b6491906122a3565b506060820151816003019081610b7a91906122a3565b506080820151816004019081610b9091906122a3565b5060a0820151816005019081610ba691906122a3565b5060c0820151816006019081610bbc91906122a3565b509050507f43a076616d42c8e0706525727a4946a0554fa3184c73b8a64b25bd1b4f9aac928787604051610bf1929190612592565b60405180910390a150505050505050565b5f8054906101000a900473ffffffffffffffffffffffffffffffffffffffff1681565b6004818051602081018201805184825260208301602085012081835280955050505050505f91509050805f018054610c5c906120d6565b80601f0160208091040260200160405190810160405280929190818152602001828054610c88906120d6565b8015610cd35780601f10610caa57610100808354040283529160200191610cd3565b820191905f5260205f20905b815481529060010190602001808311610cb657829003601f168201915b505050505090806001018054610ce8906120d6565b80601f0160208091040260200160405190810160405280929190818152602001828054610d14906120d6565b8015610d5f5780601f10610d3657610100808354040283529160200191610d5f565b820191905f5260205f20905b815481529060010190602001808311610d4257829003601f168201915b505050505090806002018054610d74906120d6565b80601f0160208091040260200160405190810160405280929190818152602001828054610da0906120d6565b8015610deb5780601f10610dc257610100808354040283529160200191610deb565b820191905f5260205f20905b815481529060010190602001808311610dce57829003601f168201915b505050505090806003018054610e00906120d6565b80601f0160208091040260200160405190810160405280929190818152602001828054610e2c906120d6565b8015610e775780601f10610e4e57610100808354040283529160200191610e77565b820191905f5260205f20905b815481529060010190602001808311610e5a57829003601f168201915b505050505090806004018054610e8c906120d6565b80601f0160208091040260200160405190810160405280929190818152602001828054610eb8906120d6565b8015610f035780601f10610eda57610100808354040283529160200191610f03565b820191905f5260205f20905b815481529060010190602001808311610ee657829003601f168201915b505050505090806005018054610f18906120d6565b80601f0160208091040260200160405190810160405280929190818152602001828054610f44906120d6565b8015610f8f5780601f10610f6657610100808354040283529160200191610f8f565b820191905f5260205f20905b815481529060010190602001808311610f7257829003601f168201915b505050505090806006018054610fa4906120d6565b80601f0160208091040260200160405190810160405280929190818152602001828054610fd0906120d6565b801561101b5780601f10610ff25761010080835404028352916020019161101b565b820191905f5260205f20905b815481529060010190602001808311610ffe57829003601f168201915b5050505050905087565b6060600382604051611037919061202b565b9081526020016040518091039020805480602002602001604051908101604052809291908181526020015f905b82821015611363578382905f5260205f2090600502016040518060a00160405290815f82018054611094906120d6565b80601f01602080910402602001604051908101604052809291908181526020018280546110c0906120d6565b801561110b5780601f106110e25761010080835404028352916020019161110b565b820191905f5260205f20905b8154815290600101906020018083116110ee57829003601f168201915b50505050508152602001600182018054611124906120d6565b80601f0160208091040260200160405190810160405280929190818152602001828054611150906120d6565b801561119b5780601f106111725761010080835404028352916020019161119b565b820191905f5260205f20905b81548152906001019060200180831161117e57829003601f168201915b505050505081526020016002820180546111b4906120d6565b80601f01602080910402602001604051908101604052809291908181526020018280546111e0906120d6565b801561122b5780601f106112025761010080835404028352916020019161122b565b820191905f5260205f20905b81548152906001019060200180831161120e57829003601f168201915b50505050508152602001600382018054611244906120d6565b80601f0160208091040260200160405190810160405280929190818152602001828054611270906120d6565b80156112bb5780601f10611292576101008083540402835291602001916112bb565b820191905f5260205f20905b81548152906001019060200180831161129e57829003601f168201915b505050505081526020016004820180546112d4906120d6565b80601f0160208091040260200160405190810160405280929190818152602001828054611300906120d6565b801561134b5780601f106113225761010080835404028352916020019161134b565b820191905f5260205f20905b81548152906001019060200180831161132e57829003601f168201915b50505050508152505081526020019060010190611064565b505050509050919050565b606060018054806020026020016040519081016040528092919081815260200182805480156113ef57602002820191905f5260205f20905b815f9054906101000a900473ffffffffffffffffffffffffffffffffffffffff1673ffffffffffffffffffffffffffffffffffffffff16815260200190600101908083116113a6575b5050505050905090565b5f8054906101000a900473ffffffffffffffffffffffffffffffffffffffff1673ffffffffffffffffffffffffffffffffffffffff163373ffffffffffffffffffffffffffffffffffffffff1614611486576040517f08c379a000000000000000000000000000000000000000000000000000000000815260040161147d9061250c565b60405180910390fd5b600181908060018154018082558091505060019003905f5260205f20015f9091909190916101000a81548173ffffffffffffffffffffffffffffffffffffffff021916908373ffffffffffffffffffffffffffffffffffffffff1602179055507f2209a7370790aa070a0b1198a12aba9e327f3bbc1e24693b628cfa958d22a7af816040516115159190611bb1565b60405180910390a150565b6002818051602081018201805184825260208301602085012081835280955050505050505f915054906101000a900460ff1681565b60018181548110611564575f80fd5b905f5260205f20015f915054906101000a900473ffffffffffffffffffffffffffffffffffffffff1681565b5f604051905090565b5f80fd5b5f80fd5b5f80fd5b5f80fd5b5f601f19601f8301169050919050565b7f4e487b71000000000000000000000000000000000000000000000000000000005f52604160045260245ffd5b6115ef826115a9565b810181811067ffffffffffffffff8211171561160e5761160d6115b9565b5b80604052505050565b5f611620611590565b905061162c82826115e6565b919050565b5f67ffffffffffffffff82111561164b5761164a6115b9565b5b611654826115a9565b9050602081019050919050565b828183375f83830152505050565b5f61168161167c84611631565b611617565b90508281526020810184848401111561169d5761169c6115a5565b5b6116a8848285611661565b509392505050565b5f82601f8301126116c4576116c36115a1565b5b81356116d484826020860161166f565b91505092915050565b5f805f805f8060c087890312156116f7576116f6611599565b5b5f87013567ffffffffffffffff8111156117145761171361159d565b5b61172089828a016116b0565b965050602087013567ffffffffffffffff8111156117415761174061159d565b5b61174d89828a016116b0565b955050604087013567ffffffffffffffff81111561176e5761176d61159d565b5b61177a89828a016116b0565b945050606087013567ffffffffffffffff81111561179b5761179a61159d565b5b6117a789828a016116b0565b935050608087013567ffffffffffffffff8111156117c8576117c761159d565b5b6117d489828a016116b0565b92505060a087013567ffffffffffffffff8111156117f5576117f461159d565b5b61180189828a016116b0565b9150509295509295509295565b5f73ffffffffffffffffffffffffffffffffffffffff82169050919050565b5f6118378261180e565b9050919050565b6118478161182d565b8114611851575f80fd5b50565b5f813590506118628161183e565b92915050565b5f6020828403121561187d5761187c611599565b5b5f61188a84828501611854565b91505092915050565b5f8115159050919050565b6118a781611893565b82525050565b5f6020820190506118c05f83018461189e565b92915050565b5f819050919050565b6118d8816118c6565b81146118e2575f80fd5b50565b5f813590506118f3816118cf565b92915050565b5f806040838503121561190f5761190e611599565b5b5f83013567ffffffffffffffff81111561192c5761192b61159d565b5b611938858286016116b0565b9250506020611949858286016118e5565b9150509250929050565b5f81519050919050565b5f82825260208201905092915050565b5f5b8381101561198a57808201518184015260208101905061196f565b5f8484015250505050565b5f61199f82611953565b6119a9818561195d565b93506119b981856020860161196d565b6119c2816115a9565b840191505092915050565b5f60a0820190508181035f8301526119e58188611995565b905081810360208301526119f98187611995565b90508181036040830152611a0d8186611995565b90508181036060830152611a218185611995565b90508181036080830152611a358184611995565b90509695505050505050565b5f805f805f805f60e0888a031215611a5c57611a5b611599565b5b5f88013567ffffffffffffffff811115611a7957611a7861159d565b5b611a858a828b016116b0565b975050602088013567ffffffffffffffff811115611aa657611aa561159d565b5b611ab28a828b016116b0565b965050604088013567ffffffffffffffff811115611ad357611ad261159d565b5b611adf8a828b016116b0565b955050606088013567ffffffffffffffff811115611b0057611aff61159d565b5b611b0c8a828b016116b0565b945050608088013567ffffffffffffffff811115611b2d57611b2c61159d565b5b611b398a828b016116b0565b93505060a088013567ffffffffffffffff811115611b5a57611b5961159d565b5b611b668a828b016116b0565b92505060c088013567ffffffffffffffff811115611b8757611b8661159d565b5b611b938a828b016116b0565b91505092959891949750929550565b611bab8161182d565b82525050565b5f602082019050611bc45f830184611ba2565b92915050565b5f60208284031215611bdf57611bde611599565b5b5f82013567ffffffffffffffff811115611bfc57611bfb61159d565b5b611c08848285016116b0565b91505092915050565b5f60e0820190508181035f830152611c29818a611995565b90508181036020830152611c3d8189611995565b90508181036040830152611c518188611995565b90508181036060830152611c658187611995565b90508181036080830152611c798186611995565b905081810360a0830152611c8d8185611995565b905081810360c0830152611ca18184611995565b905098975050505050505050565b5f81519050919050565b5f82825260208201905092915050565b5f819050602082019050919050565b5f82825260208201905092915050565b5f611cf282611953565b611cfc8185611cd8565b9350611d0c81856020860161196d565b611d15816115a9565b840191505092915050565b5f60a083015f8301518482035f860152611d3a8282611ce8565b91505060208301518482036020860152611d548282611ce8565b91505060408301518482036040860152611d6e8282611ce8565b91505060608301518482036060860152611d888282611ce8565b91505060808301518482036080860152611da28282611ce8565b9150508091505092915050565b5f611dba8383611d20565b905092915050565b5f602082019050919050565b5f611dd882611caf565b611de28185611cb9565b935083602082028501611df485611cc9565b805f5b85811015611e2f5784840389528151611e108582611daf565b9450611e1b83611dc2565b925060208a01995050600181019050611df7565b50829750879550505050505092915050565b5f6020820190508181035f830152611e598184611dce565b905092915050565b5f81519050919050565b5f82825260208201905092915050565b5f819050602082019050919050565b611e938161182d565b82525050565b5f611ea48383611e8a565b60208301905092915050565b5f602082019050919050565b5f611ec682611e61565b611ed08185611e6b565b9350611edb83611e7b565b805f5b83811015611f0b578151611ef28882611e99565b9750611efd83611eb0565b925050600181019050611ede565b5085935050505092915050565b5f6020820190508181035f830152611f308184611ebc565b905092915050565b5f60208284031215611f4d57611f4c611599565b5b5f611f5a848285016118e5565b91505092915050565b7f436869206e67756f6920757920717579656e206d6f692064756f6320706865705f8201527f20676f692068616d206e61790000000000000000000000000000000000000000602082015250565b5f611fbd602c8361195d565b9150611fc882611f63565b604082019050919050565b5f6020820190508181035f830152611fea81611fb1565b9050919050565b5f81905092915050565b5f61200582611953565b61200f8185611ff1565b935061201f81856020860161196d565b80840191505092915050565b5f6120368284611ffb565b915081905092915050565b7f4d6120736f206b686f6e6720746f6e20746169000000000000000000000000005f82015250565b5f61207560138361195d565b915061208082612041565b602082019050919050565b5f6020820190508181035f8301526120a281612069565b9050919050565b7f4e487b71000000000000000000000000000000000000000000000000000000005f52602260045260245ffd5b5f60028204905060018216806120ed57607f821691505b602082108103612100576120ff6120a9565b5b50919050565b5f819050815f5260205f209050919050565b5f6020601f8301049050919050565b5f82821b905092915050565b5f600883026121627fffffffffffffffffffffffffffffffffffffffffffffffffffffffffffffffff82612127565b61216c8683612127565b95508019841693508086168417925050509392505050565b5f819050919050565b5f6121a76121a261219d846118c6565b612184565b6118c6565b9050919050565b5f819050919050565b6121c08361218d565b6121d46121cc826121ae565b848454612133565b825550505050565b5f90565b6121e86121dc565b6121f38184846121b7565b505050565b5b818110156122165761220b5f826121e0565b6001810190506121f9565b5050565b601f82111561225b5761222c81612106565b61223584612118565b81016020851015612244578190505b61225861225085612118565b8301826121f8565b50505b505050565b5f82821c905092915050565b5f61227b5f1984600802612260565b1980831691505092915050565b5f612293838361226c565b9150826002028217905092915050565b6122ac82611953565b67ffffffffffffffff8111156122c5576122c46115b9565b5b6122cf82546120d6565b6122da82828561221a565b5f60209050601f83116001811461230b575f84156122f9578287015190505b6123038582612288565b86555061236a565b601f19841661231986612106565b5f5b828110156123405784890151825560018201915060208501945060208101905061231b565b8683101561235d5784890151612359601f89168261226c565b8355505b6001600288020188555050505b505050505050565b5f60c0820190508181035f83015261238a8189611995565b9050818103602083015261239e8188611995565b905081810360408301526123b28187611995565b905081810360608301526123c68186611995565b905081810360808301526123da8185611995565b905081810360a08301526123ee8184611995565b9050979650505050505050565b7f4e487b71000000000000000000000000000000000000000000000000000000005f52603260045260245ffd5b7f4e487b71000000000000000000000000000000000000000000000000000000005f52601160045260245ffd5b5f61245f826118c6565b91507fffffffffffffffffffffffffffffffffffffffffffffffffffffffffffffffff820361249157612490612428565b5b600182019050919050565b7f4368692063687520736f2068757520686f7020646f6e67206d6f692064756f635f8201527f207068657020676f692068616d206e6179000000000000000000000000000000602082015250565b5f6124f660318361195d565b91506125018261249c565b604082019050919050565b5f6020820190508181035f830152612523816124ea565b9050919050565b7f4d6120736f20646120746f6e20746169000000000000000000000000000000005f82015250565b5f61255e60108361195d565b91506125698261252a565b602082019050919050565b5f6020820190508181035f83015261258b81612552565b9050919050565b5f6040820190508181035f8301526125aa8185611995565b905081810360208301526125be8184611995565b9050939250505056fea2646970667358221220bb2fbdf7cc7209de2ba6ba80726127561020b6b642c0182a829fe2fb6252bd1f64736f6c63430008150033",
  "immutableReferences": {},
  "source": "// SPDX-License-Identifier: MIT\npragma solidity ^0.8.0;\n\ncontract TheoDoiSanPham {\n    address public chuSoHuu;\n    address[] public danhSachNguoiUyQuyen;\n    mapping(string => bool) public maSoSanPhamDaTonTai;\n    \n    struct TrangThai {\n        string ten;\n        string thoiGian;\n        string diaDiem;\n        string loaiTrangThai;\n        string moTaChiTiet;\n    }\n    \n    mapping(string => TrangThai[]) public lichSuTrangThaiSanPham;  // S dng mapping\n    \n    struct SanPham {\n        string id;\n        string ten;\n        string nhaSanXuat;\n        string loaiSanPham;\n        string kichThuoc;\n        string trongLuong;\n        string hanSuDung;\n    }\n    \n    mapping(string => SanPham) public danhSachSanPham;\n    \n    event SanPhamDaTao(string idSanPham, string tenSanPham);\n    \n    event CapNhatTrangThai(string idSanPham, string tenTrangThai, string thoiGian, string diaDiem, string loaiTrangThai, string moTaChiTiet);\n    \n    event UyQuyen(address nguoiDuocUyQuyen);\n    \n    event ThuHoiUyQuyen(address nguoiBiThuHoi);\n    \n    constructor() {\n        chuSoHuu = msg.sender;\n    }\n    \n    modifier chiChuSoHuu() {\n        require(msg.sender == chuSoHuu, \"Chi chu so huu hop dong moi duoc phep goi ham nay\");\n        _;\n    }\n    \n    modifier chiUyQuyen() {\n        require(laNguoiUyQuyen(msg.sender), \"Chi nguoi uy quyen moi duoc phep goi ham nay\");\n        _;\n    }\n    \n    function taoSanPham(string memory id, string memory ten, string memory nhaSanXuat, string memory loaiSanPham, string memory kichThuoc, string memory trongLuong, string memory hanSuDung) public chiChuSoHuu {\n        require(!maSoSanPhamDaTonTai[id], \"Ma so da ton tai\");\n        maSoSanPhamDaTonTai[id] = true;\n        \n        danhSachSanPham[id] = SanPham(id, ten, nhaSanXuat, loaiSanPham, kichThuoc, trongLuong, hanSuDung);\n        emit SanPhamDaTao(id, ten);\n    }\n\n    function capNhatTrangThai(string memory idSanPham, string memory tenTrangThai, string memory thoiGian, string memory diaDiem, string memory loaiTrangThai, string memory moTaChiTiet) public chiUyQuyen {\n        require(maSoSanPhamDaTonTai[idSanPham], \"Ma so khong ton tai\");\n        \n        TrangThai memory trangThai = TrangThai(tenTrangThai, thoiGian, diaDiem, loaiTrangThai, moTaChiTiet);\n        lichSuTrangThaiSanPham[idSanPham].push(trangThai);\n        \n        emit CapNhatTrangThai(idSanPham, tenTrangThai, thoiGian, diaDiem, loaiTrangThai, moTaChiTiet);\n    }\n\n    function xemLichSuTrangThaiSanPham(string memory idSanPham) public view returns (TrangThai[] memory) {\n        return lichSuTrangThaiSanPham[idSanPham];\n    }\n    \n    function uyQuyen(address _nguoiUyQuyen) public chiChuSoHuu {\n        danhSachNguoiUyQuyen.push(_nguoiUyQuyen);\n        emit UyQuyen(_nguoiUyQuyen);\n    }\n    \n    function thuHoiUyQuyen(address _nguoiBiThuHoi) public chiChuSoHuu {\n        for (uint i = 0; i < danhSachNguoiUyQuyen.length; i++) {\n            if (danhSachNguoiUyQuyen[i] == _nguoiBiThuHoi) {\n                delete danhSachNguoiUyQuyen[i];\n                emit ThuHoiUyQuyen(_nguoiBiThuHoi);\n            }\n        }\n    }\n    \n    function XemDanhSachNguoiUyQuyen() public view returns (address[] memory) {\n        return danhSachNguoiUyQuyen;\n    }\n    \n    function laNguoiUyQuyen(address _address) public view returns (bool) {\n        for (uint i = 0; i < danhSachNguoiUyQuyen.length; i++) {\n            if (danhSachNguoiUyQuyen[i] == _address) {\n                return true;\n            }\n        }\n        return false;\n    }\n}\n",
  "sourcePath": "/workspaces/BlockChain/contracts/theodoiSP.sol",
  "compiler": {
    "name": "solc",
    "version": "0.8.21+commit.d9974bed.Emscripten.clang"
  },
  "schemaVersion": "3.4.16",
  "updatedAt": "2024-08-02T03:25:49.958Z",
  "devdoc": {
    "kind": "dev",
    "methods": {},
    "version": 1
  },
  "userdoc": {
    "kind": "user",
    "methods": {},
    "version": 1
  }
}