{
  "contractName": "TheoDoi",
  "abi": [
    {
      "anonymous": false,
      "inputs": [
        {
          "indexed": false,
          "internalType": "string",
          "name": "id",
          "type": "string"
        },
        {
          "indexed": false,
          "internalType": "string",
          "name": "data",
          "type": "string"
        }
      ],
      "name": "CapNhat",
      "type": "event"
    },
    {
      "anonymous": false,
      "inputs": [
        {
          "indexed": false,
          "internalType": "string",
          "name": "id",
          "type": "string"
        }
      ],
      "name": "Tao",
      "type": "event"
    },
    {
      "inputs": [
        {
          "internalType": "string",
          "name": "",
          "type": "string"
        }
      ],
      "name": "dsSanPham",
      "outputs": [
        {
          "internalType": "string",
          "name": "id",
          "type": "string"
        },
        {
          "internalType": "string",
          "name": "data",
          "type": "string"
        }
      ],
      "stateMutability": "view",
      "type": "function",
      "constant": true
    },
    {
      "inputs": [
        {
          "internalType": "string",
          "name": "",
          "type": "string"
        }
      ],
      "name": "idDaTonTai",
      "outputs": [
        {
          "internalType": "bool",
          "name": "",
          "type": "bool"
        }
      ],
      "stateMutability": "view",
      "type": "function",
      "constant": true
    },
    {
      "inputs": [
        {
          "internalType": "uint256",
          "name": "",
          "type": "uint256"
        }
      ],
      "name": "ids",
      "outputs": [
        {
          "internalType": "string",
          "name": "",
          "type": "string"
        }
      ],
      "stateMutability": "view",
      "type": "function",
      "constant": true
    },
    {
      "inputs": [
        {
          "internalType": "string",
          "name": "",
          "type": "string"
        },
        {
          "internalType": "uint256",
          "name": "",
          "type": "uint256"
        }
      ],
      "name": "lichSu",
      "outputs": [
        {
          "internalType": "string",
          "name": "data",
          "type": "string"
        }
      ],
      "stateMutability": "view",
      "type": "function",
      "constant": true
    },
    {
      "inputs": [
        {
          "internalType": "string",
          "name": "id",
          "type": "string"
        },
        {
          "internalType": "string",
          "name": "data",
          "type": "string"
        }
      ],
      "name": "taoSP",
      "outputs": [],
      "stateMutability": "nonpayable",
      "type": "function"
    },
    {
      "inputs": [],
      "name": "dsSP",
      "outputs": [
        {
          "components": [
            {
              "internalType": "string",
              "name": "id",
              "type": "string"
            },
            {
              "internalType": "string",
              "name": "data",
              "type": "string"
            }
          ],
          "internalType": "struct TheoDoi.SanPham[]",
          "name": "",
          "type": "tuple[]"
        }
      ],
      "stateMutability": "view",
      "type": "function",
      "constant": true
    },
    {
      "inputs": [
        {
          "internalType": "string",
          "name": "id",
          "type": "string"
        }
      ],
      "name": "xemSP",
      "outputs": [
        {
          "components": [
            {
              "internalType": "string",
              "name": "id",
              "type": "string"
            },
            {
              "internalType": "string",
              "name": "data",
              "type": "string"
            }
          ],
          "internalType": "struct TheoDoi.SanPham",
          "name": "",
          "type": "tuple"
        }
      ],
      "stateMutability": "view",
      "type": "function",
      "constant": true
    },
    {
      "inputs": [
        {
          "internalType": "string",
          "name": "id",
          "type": "string"
        },
        {
          "internalType": "string",
          "name": "data",
          "type": "string"
        }
      ],
      "name": "capNhat",
      "outputs": [],
      "stateMutability": "nonpayable",
      "type": "function"
    },
    {
      "inputs": [
        {
          "internalType": "string",
          "name": "id",
          "type": "string"
        }
      ],
      "name": "xemLS",
      "outputs": [
        {
          "components": [
            {
              "internalType": "string",
              "name": "data",
              "type": "string"
            }
          ],
          "internalType": "struct TheoDoi.TrangThai[]",
          "name": "",
          "type": "tuple[]"
        }
      ],
      "stateMutability": "view",
      "type": "function",
      "constant": true
    }
  ],
  "bytecode": "0x608060405234801561000f575f80fd5b506117d28061001d5f395ff3fe608060405234801561000f575f80fd5b5060043610610091575f3560e01c8063ac44803e11610064578063ac44803e14610144578063b216aaf914610174578063b8ff6e3014610190578063c2f36ae6146101c0578063fac333ac146101dc57610091565b8063374f54f7146100955780635392a81f146100c55780635b19e69e146100f657806379af231a14610126575b5f80fd5b6100af60048036038101906100aa9190610d3e565b61020c565b6040516100bc9190610e40565b60405180910390f35b6100df60048036038101906100da9190610d3e565b610363565b6040516100ed929190610ea8565b60405180910390f35b610110600480360381019061010b9190610d3e565b6104a7565b60405161011d9190610ef7565b60405180910390f35b61012e6104dc565b60405161013b919061100c565b60405180910390f35b61015e6004803603810190610159919061105f565b6106e2565b60405161016b91906110b9565b60405180910390f35b61018e600480360381019061018991906110d9565b6107b0565b005b6101aa60048036038101906101a59190610d3e565b61091c565b6040516101b79190611231565b60405180910390f35b6101da60048036038101906101d591906110d9565b610a21565b005b6101f660048036038101906101f19190611251565b610b32565b60405161020391906110b9565b60405180910390f35b610214610bd7565b60038260405161022491906112b6565b90815260200160405180910390206040518060400160405290815f8201805461024c906112f9565b80601f0160208091040260200160405190810160405280929190818152602001828054610278906112f9565b80156102c35780601f1061029a576101008083540402835291602001916102c3565b820191905f5260205f20905b8154815290600101906020018083116102a657829003601f168201915b505050505081526020016001820180546102dc906112f9565b80601f0160208091040260200160405190810160405280929190818152602001828054610308906112f9565b80156103535780601f1061032a57610100808354040283529160200191610353565b820191905f5260205f20905b81548152906001019060200180831161033657829003601f168201915b5050505050815250509050919050565b6003818051602081018201805184825260208301602085012081835280955050505050505f91509050805f01805461039a906112f9565b80601f01602080910402602001604051908101604052809291908181526020018280546103c6906112f9565b80156104115780601f106103e857610100808354040283529160200191610411565b820191905f5260205f20905b8154815290600101906020018083116103f457829003601f168201915b505050505090806001018054610426906112f9565b80601f0160208091040260200160405190810160405280929190818152602001828054610452906112f9565b801561049d5780601f106104745761010080835404028352916020019161049d565b820191905f5260205f20905b81548152906001019060200180831161048057829003601f168201915b5050505050905082565b6001818051602081018201805184825260208301602085012081835280955050505050505f915054906101000a900460ff1681565b60605f808054905067ffffffffffffffff8111156104fd576104fc610c1a565b5b60405190808252806020026020018201604052801561053657816020015b610523610bd7565b81526020019060019003908161051b5790505b5090505f5b5f805490508110156106da5760035f828154811061055c5761055b611329565b5b905f5260205f200160405161057191906113e8565b90815260200160405180910390206040518060400160405290815f82018054610599906112f9565b80601f01602080910402602001604051908101604052809291908181526020018280546105c5906112f9565b80156106105780601f106105e757610100808354040283529160200191610610565b820191905f5260205f20905b8154815290600101906020018083116105f357829003601f168201915b50505050508152602001600182018054610629906112f9565b80601f0160208091040260200160405190810160405280929190818152602001828054610655906112f9565b80156106a05780601f10610677576101008083540402835291602001916106a0565b820191905f5260205f20905b81548152906001019060200180831161068357829003601f168201915b5050505050815250508282815181106106bc576106bb611329565b5b602002602001018190525080806106d29061142b565b91505061053b565b508091505090565b6002828051602081018201805184825260208301602085012081835280955050505050508181548110610713575f80fd5b905f5260205f20015f9150915050805f01805461072f906112f9565b80601f016020809104026020016040519081016040528092919081815260200182805461075b906112f9565b80156107a65780601f1061077d576101008083540402835291602001916107a6565b820191905f5260205f20905b81548152906001019060200180831161078957829003601f168201915b5050505050905081565b6001826040516107c091906112b6565b90815260200160405180910390205f9054906101000a900460ff161561081b576040517f08c379a0000000000000000000000000000000000000000000000000000000008152600401610812906114bc565b60405180910390fd5b6001808360405161082c91906112b6565b90815260200160405180910390205f6101000a81548160ff0219169083151502179055505f82908060018154018082558091505060019003905f5260205f20015f9091909190915090816108809190611665565b506040518060400160405280838152602001828152506003836040516108a691906112b6565b90815260200160405180910390205f820151815f0190816108c79190611665565b5060208201518160010190816108dd9190611665565b509050507fc93b50a784f343981751e73d2bde0e7dd28b21a0e29998d4b5ee516753d26e1f8260405161091091906110b9565b60405180910390a15050565b606060028260405161092e91906112b6565b9081526020016040518091039020805480602002602001604051908101604052809291908181526020015f905b82821015610a16578382905f5260205f20016040518060200160405290815f82018054610987906112f9565b80601f01602080910402602001604051908101604052809291908181526020018280546109b3906112f9565b80156109fe5780601f106109d5576101008083540402835291602001916109fe565b820191905f5260205f20905b8154815290600101906020018083116109e157829003601f168201915b5050505050815250508152602001906001019061095b565b505050509050919050565b600182604051610a3191906112b6565b90815260200160405180910390205f9054906101000a900460ff16610a8b576040517f08c379a0000000000000000000000000000000000000000000000000000000008152600401610a829061177e565b60405180910390fd5b5f6040518060200160405280838152509050600283604051610aad91906112b6565b908152602001604051809103902081908060018154018082558091505060019003905f5260205f20015f909190919091505f820151815f019081610af19190611665565b5050507fc2408e16ab610981aacf7b090765aa183ed374109e50ebaf28f2b3eecd9ad24d8383604051610b25929190610ea8565b60405180910390a1505050565b5f8181548110610b40575f80fd5b905f5260205f20015f915090508054610b58906112f9565b80601f0160208091040260200160405190810160405280929190818152602001828054610b84906112f9565b8015610bcf5780601f10610ba657610100808354040283529160200191610bcf565b820191905f5260205f20905b815481529060010190602001808311610bb257829003601f168201915b505050505081565b604051806040016040528060608152602001606081525090565b5f604051905090565b5f80fd5b5f80fd5b5f80fd5b5f80fd5b5f601f19601f8301169050919050565b7f4e487b71000000000000000000000000000000000000000000000000000000005f52604160045260245ffd5b610c5082610c0a565b810181811067ffffffffffffffff82111715610c6f57610c6e610c1a565b5b80604052505050565b5f610c81610bf1565b9050610c8d8282610c47565b919050565b5f67ffffffffffffffff821115610cac57610cab610c1a565b5b610cb582610c0a565b9050602081019050919050565b828183375f83830152505050565b5f610ce2610cdd84610c92565b610c78565b905082815260208101848484011115610cfe57610cfd610c06565b5b610d09848285610cc2565b509392505050565b5f82601f830112610d2557610d24610c02565b5b8135610d35848260208601610cd0565b91505092915050565b5f60208284031215610d5357610d52610bfa565b5b5f82013567ffffffffffffffff811115610d7057610d6f610bfe565b5b610d7c84828501610d11565b91505092915050565b5f81519050919050565b5f82825260208201905092915050565b5f5b83811015610dbc578082015181840152602081019050610da1565b5f8484015250505050565b5f610dd182610d85565b610ddb8185610d8f565b9350610deb818560208601610d9f565b610df481610c0a565b840191505092915050565b5f604083015f8301518482035f860152610e198282610dc7565b91505060208301518482036020860152610e338282610dc7565b9150508091505092915050565b5f6020820190508181035f830152610e588184610dff565b905092915050565b5f82825260208201905092915050565b5f610e7a82610d85565b610e848185610e60565b9350610e94818560208601610d9f565b610e9d81610c0a565b840191505092915050565b5f6040820190508181035f830152610ec08185610e70565b90508181036020830152610ed48184610e70565b90509392505050565b5f8115159050919050565b610ef181610edd565b82525050565b5f602082019050610f0a5f830184610ee8565b92915050565b5f81519050919050565b5f82825260208201905092915050565b5f819050602082019050919050565b5f604083015f8301518482035f860152610f538282610dc7565b91505060208301518482036020860152610f6d8282610dc7565b9150508091505092915050565b5f610f858383610f39565b905092915050565b5f602082019050919050565b5f610fa382610f10565b610fad8185610f1a565b935083602082028501610fbf85610f2a565b805f5b85811015610ffa5784840389528151610fdb8582610f7a565b9450610fe683610f8d565b925060208a01995050600181019050610fc2565b50829750879550505050505092915050565b5f6020820190508181035f8301526110248184610f99565b905092915050565b5f819050919050565b61103e8161102c565b8114611048575f80fd5b50565b5f8135905061105981611035565b92915050565b5f806040838503121561107557611074610bfa565b5b5f83013567ffffffffffffffff81111561109257611091610bfe565b5b61109e85828601610d11565b92505060206110af8582860161104b565b9150509250929050565b5f6020820190508181035f8301526110d18184610e70565b905092915050565b5f80604083850312156110ef576110ee610bfa565b5b5f83013567ffffffffffffffff81111561110c5761110b610bfe565b5b61111885828601610d11565b925050602083013567ffffffffffffffff81111561113957611138610bfe565b5b61114585828601610d11565b9150509250929050565b5f81519050919050565b5f82825260208201905092915050565b5f819050602082019050919050565b5f602083015f8301518482035f8601526111928282610dc7565b9150508091505092915050565b5f6111aa8383611178565b905092915050565b5f602082019050919050565b5f6111c88261114f565b6111d28185611159565b9350836020820285016111e485611169565b805f5b8581101561121f5784840389528151611200858261119f565b945061120b836111b2565b925060208a019950506001810190506111e7565b50829750879550505050505092915050565b5f6020820190508181035f83015261124981846111be565b905092915050565b5f6020828403121561126657611265610bfa565b5b5f6112738482850161104b565b91505092915050565b5f81905092915050565b5f61129082610d85565b61129a818561127c565b93506112aa818560208601610d9f565b80840191505092915050565b5f6112c18284611286565b915081905092915050565b7f4e487b71000000000000000000000000000000000000000000000000000000005f52602260045260245ffd5b5f600282049050600182168061131057607f821691505b602082108103611323576113226112cc565b5b50919050565b7f4e487b71000000000000000000000000000000000000000000000000000000005f52603260045260245ffd5b5f819050815f5260205f209050919050565b5f8154611374816112f9565b61137e818661127c565b9450600182165f811461139857600181146113ad576113df565b60ff19831686528115158202860193506113df565b6113b685611356565b5f5b838110156113d7578154818901526001820191506020810190506113b8565b838801955050505b50505092915050565b5f6113f38284611368565b915081905092915050565b7f4e487b71000000000000000000000000000000000000000000000000000000005f52601160045260245ffd5b5f6114358261102c565b91507fffffffffffffffffffffffffffffffffffffffffffffffffffffffffffffffff8203611467576114666113fe565b5b600182019050919050565b7f496420646120746f6e20746169000000000000000000000000000000000000005f82015250565b5f6114a6600d83610e60565b91506114b182611472565b602082019050919050565b5f6020820190508181035f8301526114d38161149a565b9050919050565b5f6020601f8301049050919050565b5f82821b905092915050565b5f600883026115247fffffffffffffffffffffffffffffffffffffffffffffffffffffffffffffffff826114e9565b61152e86836114e9565b95508019841693508086168417925050509392505050565b5f819050919050565b5f61156961156461155f8461102c565b611546565b61102c565b9050919050565b5f819050919050565b6115828361154f565b61159661158e82611570565b8484546114f5565b825550505050565b5f90565b6115aa61159e565b6115b5818484611579565b505050565b5b818110156115d8576115cd5f826115a2565b6001810190506115bb565b5050565b601f82111561161d576115ee81611356565b6115f7846114da565b81016020851015611606578190505b61161a611612856114da565b8301826115ba565b50505b505050565b5f82821c905092915050565b5f61163d5f1984600802611622565b1980831691505092915050565b5f611655838361162e565b9150826002028217905092915050565b61166e82610d85565b67ffffffffffffffff81111561168757611686610c1a565b5b61169182546112f9565b61169c8282856115dc565b5f60209050601f8311600181146116cd575f84156116bb578287015190505b6116c5858261164a565b86555061172c565b601f1984166116db86611356565b5f5b82811015611702578489015182556001820191506020850194506020810190506116dd565b8683101561171f578489015161171b601f89168261162e565b8355505b6001600288020188555050505b505050505050565b7f4964206b686f6e6720746f6e20746169000000000000000000000000000000005f82015250565b5f611768601083610e60565b915061177382611734565b602082019050919050565b5f6020820190508181035f8301526117958161175c565b905091905056fea26469706673582212206ccdf80aaf517100e069b0ff291155758f0da0c902e3cb450cf631e471dcfd7164736f6c63430008150033",
  "immutableReferences": {},
  "source": "// SPDX-License-Identifier: MIT\npragma solidity ^0.8.0;\n\ncontract TheoDoi {\n    string[] public ids;\n    mapping(string => bool) public idDaTonTai;\n    \n    struct TrangThai {\n        string data;\n    }\n    \n    mapping(string => TrangThai[]) public lichSu;\n    \n    struct SanPham {\n        string id;\n        string data;\n    }\n    \n    mapping(string => SanPham) public dsSanPham;\n    \n    event Tao(string id);\n    event CapNhat(string id, string data);\n    \n    function taoSP(string memory id, string memory data) public {\n        require(!idDaTonTai[id], \"Id da ton tai\");\n        idDaTonTai[id] = true;\n        ids.push(id);\n        \n        dsSanPham[id] = SanPham(id, data);\n        emit Tao(id);\n    }\n\n    function dsSP() public view returns (SanPham[] memory) {\n        SanPham[] memory spChiTiet = new SanPham[](ids.length);\n        \n        for (uint i = 0; i < ids.length; i++) {\n            spChiTiet[i] = dsSanPham[ids[i]];\n        }\n        \n        return spChiTiet;\n    }\n\n    function xemSP(string memory id) public view returns (SanPham memory) {\n        return dsSanPham[id];\n    }\n    \n    function capNhat(string memory id, string memory data) public {\n        require(idDaTonTai[id], \"Id khong ton tai\");\n        \n        TrangThai memory trangThai = TrangThai(data);\n        lichSu[id].push(trangThai);\n        \n        emit CapNhat(id, data);\n    }\n\n    function xemLS(string memory id) public view returns (TrangThai[] memory) {\n        return lichSu[id];\n    }\n\n}\n",
  "sourcePath": "/workspaces/BlockChain/contracts/theoDoi.sol",
  "compiler": {
    "name": "solc",
    "version": "0.8.21+commit.d9974bed.Emscripten.clang"
  },
  "schemaVersion": "3.4.16",
  "updatedAt": "2024-08-12T03:31:10.452Z",
  "networkType": "ethereum",
  "devdoc": {
    "kind": "dev",
    "methods": {},
    "version": 1
  },
  "userdoc": {
    "kind": "user",
    "methods": {},
    "version": 1
  }
}