{
  "contractName": "TheoDoi",
  "abi": [
    {
      "anonymous": false,
      "inputs": [
        {
          "indexed": false,
          "internalType": "string",
          "name": "id",
          "type": "string"
        },
        {
          "indexed": false,
          "internalType": "string",
          "name": "data",
          "type": "string"
        }
      ],
      "name": "CapNhat",
      "type": "event"
    },
    {
      "anonymous": false,
      "inputs": [
        {
          "indexed": false,
          "internalType": "string",
          "name": "id",
          "type": "string"
        }
      ],
      "name": "Tao",
      "type": "event"
    },
    {
      "inputs": [
        {
          "internalType": "string",
          "name": "",
          "type": "string"
        }
      ],
      "name": "idDaTonTai",
      "outputs": [
        {
          "internalType": "bool",
          "name": "",
          "type": "bool"
        }
      ],
      "stateMutability": "view",
      "type": "function",
      "constant": true
    },
    {
      "inputs": [
        {
          "internalType": "uint256",
          "name": "",
          "type": "uint256"
        }
      ],
      "name": "ids",
      "outputs": [
        {
          "internalType": "string",
          "name": "",
          "type": "string"
        }
      ],
      "stateMutability": "view",
      "type": "function",
      "constant": true
    },
    {
      "inputs": [
        {
          "internalType": "string",
          "name": "",
          "type": "string"
        },
        {
          "internalType": "uint256",
          "name": "",
          "type": "uint256"
        }
      ],
      "name": "lichSu",
      "outputs": [
        {
          "internalType": "string",
          "name": "data",
          "type": "string"
        }
      ],
      "stateMutability": "view",
      "type": "function",
      "constant": true
    },
    {
      "inputs": [
        {
          "internalType": "string",
          "name": "",
          "type": "string"
        }
      ],
      "name": "sanPhams",
      "outputs": [
        {
          "internalType": "string",
          "name": "id",
          "type": "string"
        },
        {
          "internalType": "string",
          "name": "data",
          "type": "string"
        }
      ],
      "stateMutability": "view",
      "type": "function",
      "constant": true
    },
    {
      "inputs": [
        {
          "internalType": "string",
          "name": "id",
          "type": "string"
        },
        {
          "internalType": "string",
          "name": "data",
          "type": "string"
        }
      ],
      "name": "taoSP",
      "outputs": [],
      "stateMutability": "nonpayable",
      "type": "function"
    },
    {
      "inputs": [
        {
          "internalType": "string",
          "name": "id",
          "type": "string"
        },
        {
          "internalType": "string",
          "name": "data",
          "type": "string"
        }
      ],
      "name": "capNhat",
      "outputs": [],
      "stateMutability": "nonpayable",
      "type": "function"
    },
    {
      "inputs": [
        {
          "internalType": "string",
          "name": "id",
          "type": "string"
        }
      ],
      "name": "xemLichSu",
      "outputs": [
        {
          "components": [
            {
              "internalType": "string",
              "name": "data",
              "type": "string"
            }
          ],
          "internalType": "struct TheoDoi.TrangThai[]",
          "name": "",
          "type": "tuple[]"
        }
      ],
      "stateMutability": "view",
      "type": "function",
      "constant": true
    },
    {
      "inputs": [],
      "name": "laySP",
      "outputs": [
        {
          "components": [
            {
              "internalType": "string",
              "name": "id",
              "type": "string"
            },
            {
              "internalType": "string",
              "name": "data",
              "type": "string"
            }
          ],
          "internalType": "struct TheoDoi.SanPham[]",
          "name": "",
          "type": "tuple[]"
        }
      ],
      "stateMutability": "view",
      "type": "function",
      "constant": true
    }
  ],
  "bytecode": "0x608060405234801561000f575f80fd5b506115df8061001d5f395ff3fe608060405234801561000f575f80fd5b5060043610610086575f3560e01c8063b216aaf911610059578063b216aaf914610139578063c2f36ae614610155578063ec704fbd14610171578063fac333ac146101a157610086565b8063418d8c6c1461008a5780634f84e044146100bb5780635b19e69e146100d9578063ac44803e14610109575b5f80fd5b6100a4600480360381019061009f9190610bac565b6101d1565b6040516100b2929190610c6d565b60405180910390f35b6100c3610315565b6040516100d09190610de6565b60405180910390f35b6100f360048036038101906100ee9190610bac565b61051b565b6040516101009190610e20565b60405180910390f35b610123600480360381019061011e9190610e6c565b610550565b6040516101309190610ec6565b60405180910390f35b610153600480360381019061014e9190610ee6565b61061e565b005b61016f600480360381019061016a9190610ee6565b61078a565b005b61018b60048036038101906101869190610bac565b61089b565b604051610198919061103e565b60405180910390f35b6101bb60048036038101906101b6919061105e565b6109a0565b6040516101c89190610ec6565b60405180910390f35b6003818051602081018201805184825260208301602085012081835280955050505050505f91509050805f018054610208906110b6565b80601f0160208091040260200160405190810160405280929190818152602001828054610234906110b6565b801561027f5780601f106102565761010080835404028352916020019161027f565b820191905f5260205f20905b81548152906001019060200180831161026257829003601f168201915b505050505090806001018054610294906110b6565b80601f01602080910402602001604051908101604052809291908181526020018280546102c0906110b6565b801561030b5780601f106102e25761010080835404028352916020019161030b565b820191905f5260205f20905b8154815290600101906020018083116102ee57829003601f168201915b5050505050905082565b60605f808054905067ffffffffffffffff81111561033657610335610a88565b5b60405190808252806020026020018201604052801561036f57816020015b61035c610a45565b8152602001906001900390816103545790505b5090505f5b5f805490508110156105135760035f8281548110610395576103946110e6565b5b905f5260205f20016040516103aa91906111af565b90815260200160405180910390206040518060400160405290815f820180546103d2906110b6565b80601f01602080910402602001604051908101604052809291908181526020018280546103fe906110b6565b80156104495780601f1061042057610100808354040283529160200191610449565b820191905f5260205f20905b81548152906001019060200180831161042c57829003601f168201915b50505050508152602001600182018054610462906110b6565b80601f016020809104026020016040519081016040528092919081815260200182805461048e906110b6565b80156104d95780601f106104b0576101008083540402835291602001916104d9565b820191905f5260205f20905b8154815290600101906020018083116104bc57829003601f168201915b5050505050815250508282815181106104f5576104f46110e6565b5b6020026020010181905250808061050b906111f2565b915050610374565b508091505090565b6001818051602081018201805184825260208301602085012081835280955050505050505f915054906101000a900460ff1681565b6002828051602081018201805184825260208301602085012081835280955050505050508181548110610581575f80fd5b905f5260205f20015f9150915050805f01805461059d906110b6565b80601f01602080910402602001604051908101604052809291908181526020018280546105c9906110b6565b80156106145780601f106105eb57610100808354040283529160200191610614565b820191905f5260205f20905b8154815290600101906020018083116105f757829003601f168201915b5050505050905081565b60018260405161062e9190611269565b90815260200160405180910390205f9054906101000a900460ff1615610689576040517f08c379a0000000000000000000000000000000000000000000000000000000008152600401610680906112c9565b60405180910390fd5b6001808360405161069a9190611269565b90815260200160405180910390205f6101000a81548160ff0219169083151502179055505f82908060018154018082558091505060019003905f5260205f20015f9091909190915090816106ee9190611472565b506040518060400160405280838152602001828152506003836040516107149190611269565b90815260200160405180910390205f820151815f0190816107359190611472565b50602082015181600101908161074b9190611472565b509050507fc93b50a784f343981751e73d2bde0e7dd28b21a0e29998d4b5ee516753d26e1f8260405161077e9190610ec6565b60405180910390a15050565b60018260405161079a9190611269565b90815260200160405180910390205f9054906101000a900460ff166107f4576040517f08c379a00000000000000000000000000000000000000000000000000000000081526004016107eb9061158b565b60405180910390fd5b5f60405180602001604052808381525090506002836040516108169190611269565b908152602001604051809103902081908060018154018082558091505060019003905f5260205f20015f909190919091505f820151815f01908161085a9190611472565b5050507fc2408e16ab610981aacf7b090765aa183ed374109e50ebaf28f2b3eecd9ad24d838360405161088e929190610c6d565b60405180910390a1505050565b60606002826040516108ad9190611269565b9081526020016040518091039020805480602002602001604051908101604052809291908181526020015f905b82821015610995578382905f5260205f20016040518060200160405290815f82018054610906906110b6565b80601f0160208091040260200160405190810160405280929190818152602001828054610932906110b6565b801561097d5780601f106109545761010080835404028352916020019161097d565b820191905f5260205f20905b81548152906001019060200180831161096057829003601f168201915b505050505081525050815260200190600101906108da565b505050509050919050565b5f81815481106109ae575f80fd5b905f5260205f20015f9150905080546109c6906110b6565b80601f01602080910402602001604051908101604052809291908181526020018280546109f2906110b6565b8015610a3d5780601f10610a1457610100808354040283529160200191610a3d565b820191905f5260205f20905b815481529060010190602001808311610a2057829003601f168201915b505050505081565b604051806040016040528060608152602001606081525090565b5f604051905090565b5f80fd5b5f80fd5b5f80fd5b5f80fd5b5f601f19601f8301169050919050565b7f4e487b71000000000000000000000000000000000000000000000000000000005f52604160045260245ffd5b610abe82610a78565b810181811067ffffffffffffffff82111715610add57610adc610a88565b5b80604052505050565b5f610aef610a5f565b9050610afb8282610ab5565b919050565b5f67ffffffffffffffff821115610b1a57610b19610a88565b5b610b2382610a78565b9050602081019050919050565b828183375f83830152505050565b5f610b50610b4b84610b00565b610ae6565b905082815260208101848484011115610b6c57610b6b610a74565b5b610b77848285610b30565b509392505050565b5f82601f830112610b9357610b92610a70565b5b8135610ba3848260208601610b3e565b91505092915050565b5f60208284031215610bc157610bc0610a68565b5b5f82013567ffffffffffffffff811115610bde57610bdd610a6c565b5b610bea84828501610b7f565b91505092915050565b5f81519050919050565b5f82825260208201905092915050565b5f5b83811015610c2a578082015181840152602081019050610c0f565b5f8484015250505050565b5f610c3f82610bf3565b610c498185610bfd565b9350610c59818560208601610c0d565b610c6281610a78565b840191505092915050565b5f6040820190508181035f830152610c858185610c35565b90508181036020830152610c998184610c35565b90509392505050565b5f81519050919050565b5f82825260208201905092915050565b5f819050602082019050919050565b5f82825260208201905092915050565b5f610ce582610bf3565b610cef8185610ccb565b9350610cff818560208601610c0d565b610d0881610a78565b840191505092915050565b5f604083015f8301518482035f860152610d2d8282610cdb565b91505060208301518482036020860152610d478282610cdb565b9150508091505092915050565b5f610d5f8383610d13565b905092915050565b5f602082019050919050565b5f610d7d82610ca2565b610d878185610cac565b935083602082028501610d9985610cbc565b805f5b85811015610dd45784840389528151610db58582610d54565b9450610dc083610d67565b925060208a01995050600181019050610d9c565b50829750879550505050505092915050565b5f6020820190508181035f830152610dfe8184610d73565b905092915050565b5f8115159050919050565b610e1a81610e06565b82525050565b5f602082019050610e335f830184610e11565b92915050565b5f819050919050565b610e4b81610e39565b8114610e55575f80fd5b50565b5f81359050610e6681610e42565b92915050565b5f8060408385031215610e8257610e81610a68565b5b5f83013567ffffffffffffffff811115610e9f57610e9e610a6c565b5b610eab85828601610b7f565b9250506020610ebc85828601610e58565b9150509250929050565b5f6020820190508181035f830152610ede8184610c35565b905092915050565b5f8060408385031215610efc57610efb610a68565b5b5f83013567ffffffffffffffff811115610f1957610f18610a6c565b5b610f2585828601610b7f565b925050602083013567ffffffffffffffff811115610f4657610f45610a6c565b5b610f5285828601610b7f565b9150509250929050565b5f81519050919050565b5f82825260208201905092915050565b5f819050602082019050919050565b5f602083015f8301518482035f860152610f9f8282610cdb565b9150508091505092915050565b5f610fb78383610f85565b905092915050565b5f602082019050919050565b5f610fd582610f5c565b610fdf8185610f66565b935083602082028501610ff185610f76565b805f5b8581101561102c578484038952815161100d8582610fac565b945061101883610fbf565b925060208a01995050600181019050610ff4565b50829750879550505050505092915050565b5f6020820190508181035f8301526110568184610fcb565b905092915050565b5f6020828403121561107357611072610a68565b5b5f61108084828501610e58565b91505092915050565b7f4e487b71000000000000000000000000000000000000000000000000000000005f52602260045260245ffd5b5f60028204905060018216806110cd57607f821691505b6020821081036110e0576110df611089565b5b50919050565b7f4e487b71000000000000000000000000000000000000000000000000000000005f52603260045260245ffd5b5f81905092915050565b5f819050815f5260205f209050919050565b5f815461113b816110b6565b6111458186611113565b9450600182165f811461115f5760018114611174576111a6565b60ff19831686528115158202860193506111a6565b61117d8561111d565b5f5b8381101561119e5781548189015260018201915060208101905061117f565b838801955050505b50505092915050565b5f6111ba828461112f565b915081905092915050565b7f4e487b71000000000000000000000000000000000000000000000000000000005f52601160045260245ffd5b5f6111fc82610e39565b91507fffffffffffffffffffffffffffffffffffffffffffffffffffffffffffffffff820361122e5761122d6111c5565b5b600182019050919050565b5f61124382610bf3565b61124d8185611113565b935061125d818560208601610c0d565b80840191505092915050565b5f6112748284611239565b915081905092915050565b7f496420646120746f6e20746169000000000000000000000000000000000000005f82015250565b5f6112b3600d83610bfd565b91506112be8261127f565b602082019050919050565b5f6020820190508181035f8301526112e0816112a7565b9050919050565b5f6020601f8301049050919050565b5f82821b905092915050565b5f600883026113317fffffffffffffffffffffffffffffffffffffffffffffffffffffffffffffffff826112f6565b61133b86836112f6565b95508019841693508086168417925050509392505050565b5f819050919050565b5f61137661137161136c84610e39565b611353565b610e39565b9050919050565b5f819050919050565b61138f8361135c565b6113a361139b8261137d565b848454611302565b825550505050565b5f90565b6113b76113ab565b6113c2818484611386565b505050565b5b818110156113e5576113da5f826113af565b6001810190506113c8565b5050565b601f82111561142a576113fb8161111d565b611404846112e7565b81016020851015611413578190505b61142761141f856112e7565b8301826113c7565b50505b505050565b5f82821c905092915050565b5f61144a5f198460080261142f565b1980831691505092915050565b5f611462838361143b565b9150826002028217905092915050565b61147b82610bf3565b67ffffffffffffffff81111561149457611493610a88565b5b61149e82546110b6565b6114a98282856113e9565b5f60209050601f8311600181146114da575f84156114c8578287015190505b6114d28582611457565b865550611539565b601f1984166114e88661111d565b5f5b8281101561150f578489015182556001820191506020850194506020810190506114ea565b8683101561152c5784890151611528601f89168261143b565b8355505b6001600288020188555050505b505050505050565b7f4964206b686f6e6720746f6e20746169000000000000000000000000000000005f82015250565b5f611575601083610bfd565b915061158082611541565b602082019050919050565b5f6020820190508181035f8301526115a281611569565b905091905056fea264697066735822122062b92e012dfc9dc09d2f973c7974ef9ecf2a14a9d90b7d2d7faa5956d059033b64736f6c63430008150033",
  "immutableReferences": {},
  "source": "// SPDX-License-Identifier: MIT\npragma solidity ^0.8.0;\n\ncontract TheoDoi {\n    string[] public ids;\n    mapping(string => bool) public idDaTonTai;\n    \n    struct TrangThai {\n        string data;\n    }\n    \n    mapping(string => TrangThai[]) public lichSu;\n    \n    struct SanPham {\n        string id;\n        string data;\n    }\n    \n    mapping(string => SanPham) public sanPhams;\n    \n    event Tao(string id);\n    event CapNhat(string id, string data);\n    \n    function taoSP(string memory id, string memory data) public {\n        require(!idDaTonTai[id], \"Id da ton tai\");\n        idDaTonTai[id] = true;\n        ids.push(id);\n        \n        sanPhams[id] = SanPham(id, data);\n        emit Tao(id);\n    }\n\n    function capNhat(string memory id, string memory data) public {\n        require(idDaTonTai[id], \"Id khong ton tai\");\n        \n        TrangThai memory trangThai = TrangThai(data);\n        lichSu[id].push(trangThai);\n        \n        emit CapNhat(id, data);\n    }\n\n    function xemLichSu(string memory id) public view returns (TrangThai[] memory) {\n        return lichSu[id];\n    }\n\n    function laySP() public view returns (SanPham[] memory) {\n        SanPham[] memory spChiTiet = new SanPham[](ids.length);\n        \n        for (uint i = 0; i < ids.length; i++) {\n            spChiTiet[i] = sanPhams[ids[i]];\n        }\n        \n        return spChiTiet;\n    }\n}\n",
  "sourcePath": "/workspaces/BlockChain/contracts/theoDoi.sol",
  "compiler": {
    "name": "solc",
    "version": "0.8.21+commit.d9974bed.Emscripten.clang"
  },
  "schemaVersion": "3.4.16",
  "updatedAt": "2024-08-11T13:49:30.911Z",
  "networkType": "ethereum",
  "devdoc": {
    "kind": "dev",
    "methods": {},
    "version": 1
  },
  "userdoc": {
    "kind": "user",
    "methods": {},
    "version": 1
  }
}