{
  "contractName": "TheoDoiSanPham",
  "abi": [
    {
      "anonymous": false,
      "inputs": [
        {
          "indexed": false,
          "internalType": "string",
          "name": "idSanPham",
          "type": "string"
        },
        {
          "indexed": false,
          "internalType": "string",
          "name": "tenTrangThai",
          "type": "string"
        },
        {
          "indexed": false,
          "internalType": "string",
          "name": "thoiGian",
          "type": "string"
        },
        {
          "indexed": false,
          "internalType": "string",
          "name": "diaDiem",
          "type": "string"
        },
        {
          "indexed": false,
          "internalType": "string",
          "name": "loaiTrangThai",
          "type": "string"
        },
        {
          "indexed": false,
          "internalType": "string",
          "name": "moTaChiTiet",
          "type": "string"
        }
      ],
      "name": "CapNhatTrangThai",
      "type": "event"
    },
    {
      "anonymous": false,
      "inputs": [
        {
          "indexed": false,
          "internalType": "string",
          "name": "idSanPham",
          "type": "string"
        },
        {
          "indexed": false,
          "internalType": "string",
          "name": "tenSanPham",
          "type": "string"
        }
      ],
      "name": "SanPhamDaTao",
      "type": "event"
    },
    {
      "inputs": [
        {
          "internalType": "uint256",
          "name": "",
          "type": "uint256"
        }
      ],
      "name": "danhSachMaSanPham",
      "outputs": [
        {
          "internalType": "string",
          "name": "",
          "type": "string"
        }
      ],
      "stateMutability": "view",
      "type": "function"
    },
    {
      "inputs": [
        {
          "internalType": "string",
          "name": "",
          "type": "string"
        }
      ],
      "name": "danhSachSanPham",
      "outputs": [
        {
          "internalType": "string",
          "name": "id",
          "type": "string"
        },
        {
          "internalType": "string",
          "name": "ten",
          "type": "string"
        },
        {
          "internalType": "string",
          "name": "nhaSanXuat",
          "type": "string"
        },
        {
          "internalType": "string",
          "name": "loaiSanPham",
          "type": "string"
        },
        {
          "internalType": "string",
          "name": "kichThuoc",
          "type": "string"
        },
        {
          "internalType": "string",
          "name": "trongLuong",
          "type": "string"
        },
        {
          "internalType": "string",
          "name": "hanSuDung",
          "type": "string"
        }
      ],
      "stateMutability": "view",
      "type": "function"
    },
    {
      "inputs": [
        {
          "internalType": "string",
          "name": "",
          "type": "string"
        },
        {
          "internalType": "uint256",
          "name": "",
          "type": "uint256"
        }
      ],
      "name": "lichSuTrangThaiSanPham",
      "outputs": [
        {
          "internalType": "string",
          "name": "ten",
          "type": "string"
        },
        {
          "internalType": "string",
          "name": "thoiGian",
          "type": "string"
        },
        {
          "internalType": "string",
          "name": "diaDiem",
          "type": "string"
        },
        {
          "internalType": "string",
          "name": "loaiTrangThai",
          "type": "string"
        },
        {
          "internalType": "string",
          "name": "moTaChiTiet",
          "type": "string"
        }
      ],
      "stateMutability": "view",
      "type": "function"
    },
    {
      "inputs": [
        {
          "internalType": "string",
          "name": "",
          "type": "string"
        }
      ],
      "name": "maSoSanPhamDaTonTai",
      "outputs": [
        {
          "internalType": "bool",
          "name": "",
          "type": "bool"
        }
      ],
      "stateMutability": "view",
      "type": "function"
    },
    {
      "inputs": [
        {
          "internalType": "string",
          "name": "id",
          "type": "string"
        },
        {
          "internalType": "string",
          "name": "ten",
          "type": "string"
        },
        {
          "internalType": "string",
          "name": "nhaSanXuat",
          "type": "string"
        },
        {
          "internalType": "string",
          "name": "loaiSanPham",
          "type": "string"
        },
        {
          "internalType": "string",
          "name": "kichThuoc",
          "type": "string"
        },
        {
          "internalType": "string",
          "name": "trongLuong",
          "type": "string"
        },
        {
          "internalType": "string",
          "name": "hanSuDung",
          "type": "string"
        }
      ],
      "name": "taoSanPham",
      "outputs": [],
      "stateMutability": "nonpayable",
      "type": "function"
    },
    {
      "inputs": [
        {
          "internalType": "string",
          "name": "idSanPham",
          "type": "string"
        },
        {
          "internalType": "string",
          "name": "tenTrangThai",
          "type": "string"
        },
        {
          "internalType": "string",
          "name": "thoiGian",
          "type": "string"
        },
        {
          "internalType": "string",
          "name": "diaDiem",
          "type": "string"
        },
        {
          "internalType": "string",
          "name": "loaiTrangThai",
          "type": "string"
        },
        {
          "internalType": "string",
          "name": "moTaChiTiet",
          "type": "string"
        }
      ],
      "name": "capNhatTrangThai",
      "outputs": [],
      "stateMutability": "nonpayable",
      "type": "function"
    },
    {
      "inputs": [
        {
          "internalType": "string",
          "name": "idSanPham",
          "type": "string"
        }
      ],
      "name": "xemLichSuTrangThaiSanPham",
      "outputs": [
        {
          "components": [
            {
              "internalType": "string",
              "name": "ten",
              "type": "string"
            },
            {
              "internalType": "string",
              "name": "thoiGian",
              "type": "string"
            },
            {
              "internalType": "string",
              "name": "diaDiem",
              "type": "string"
            },
            {
              "internalType": "string",
              "name": "loaiTrangThai",
              "type": "string"
            },
            {
              "internalType": "string",
              "name": "moTaChiTiet",
              "type": "string"
            }
          ],
          "internalType": "struct TheoDoiSanPham.TrangThai[]",
          "name": "",
          "type": "tuple[]"
        }
      ],
      "stateMutability": "view",
      "type": "function"
    },
    {
      "inputs": [],
      "name": "layDanhSachSanPham",
      "outputs": [
        {
          "internalType": "string[]",
          "name": "",
          "type": "string[]"
        }
      ],
      "stateMutability": "view",
      "type": "function"
    }
  ],
  "bytecode": "0x608060405234801561000f575f80fd5b50611f898061001d5f395ff3fe608060405234801561000f575f80fd5b5060043610610086575f3560e01c806372d33e671161005957806372d33e6714610126578063823dafef1461015c578063b86a643e1461018c578063f9f01abb146101aa57610086565b806303dea9261461008a5780633e1bb02c146100a657806355f63677146100d6578063607048bd1461010a575b5f80fd5b6100a4600480360381019061009f91906112af565b6101da565b005b6100c060048036038101906100bb9190611413565b61036b565b6040516100cd91906114b8565b60405180910390f35b6100f060048036038101906100eb91906114d8565b610410565b604051610101959493929190611532565b60405180910390f35b610124600480360381019061011f91906115a6565b610712565b005b610140600480360381019061013b9190611707565b610911565b604051610153979695949392919061174e565b60405180910390f35b61017660048036038101906101719190611707565b610d11565b604051610183919061197e565b60405180910390f35b61019461105a565b6040516101a19190611a59565b60405180910390f35b6101c460048036038101906101bf9190611707565b61112d565b6040516101d19190611a93565b60405180910390f35b6001866040516101ea9190611ae6565b90815260200160405180910390205f9054906101000a900460ff16610244576040517f08c379a000000000000000000000000000000000000000000000000000000000815260040161023b90611b46565b60405180910390fd5b5f6040518060a0016040528087815260200186815260200185815260200184815260200183815250905060028760405161027e9190611ae6565b908152602001604051809103902081908060018154018082558091505060019003905f5260205f2090600502015f909190919091505f820151815f0190816102c69190611d5e565b5060208201518160010190816102dc9190611d5e565b5060408201518160020190816102f29190611d5e565b5060608201518160030190816103089190611d5e565b50608082015181600401908161031e9190611d5e565b5050507f7d8a5efae2c8773245f112e1a5b61000a5f2d69813486d0d918bba1bc9abcc6f87878787878760405161035a96959493929190611e2d565b60405180910390a150505050505050565b5f8181548110610379575f80fd5b905f5260205f20015f91509050805461039190611b91565b80601f01602080910402602001604051908101604052809291908181526020018280546103bd90611b91565b80156104085780601f106103df57610100808354040283529160200191610408565b820191905f5260205f20905b8154815290600101906020018083116103eb57829003601f168201915b505050505081565b6002828051602081018201805184825260208301602085012081835280955050505050508181548110610441575f80fd5b905f5260205f2090600502015f9150915050805f01805461046190611b91565b80601f016020809104026020016040519081016040528092919081815260200182805461048d90611b91565b80156104d85780601f106104af576101008083540402835291602001916104d8565b820191905f5260205f20905b8154815290600101906020018083116104bb57829003601f168201915b5050505050908060010180546104ed90611b91565b80601f016020809104026020016040519081016040528092919081815260200182805461051990611b91565b80156105645780601f1061053b57610100808354040283529160200191610564565b820191905f5260205f20905b81548152906001019060200180831161054757829003601f168201915b50505050509080600201805461057990611b91565b80601f01602080910402602001604051908101604052809291908181526020018280546105a590611b91565b80156105f05780601f106105c7576101008083540402835291602001916105f0565b820191905f5260205f20905b8154815290600101906020018083116105d357829003601f168201915b50505050509080600301805461060590611b91565b80601f016020809104026020016040519081016040528092919081815260200182805461063190611b91565b801561067c5780601f106106535761010080835404028352916020019161067c565b820191905f5260205f20905b81548152906001019060200180831161065f57829003601f168201915b50505050509080600401805461069190611b91565b80601f01602080910402602001604051908101604052809291908181526020018280546106bd90611b91565b80156107085780601f106106df57610100808354040283529160200191610708565b820191905f5260205f20905b8154815290600101906020018083116106eb57829003601f168201915b5050505050905085565b6001876040516107229190611ae6565b90815260200160405180910390205f9054906101000a900460ff161561077d576040517f08c379a000000000000000000000000000000000000000000000000000000000815260040161077490611f00565b60405180910390fd5b6001808860405161078e9190611ae6565b90815260200160405180910390205f6101000a81548160ff0219169083151502179055505f87908060018154018082558091505060019003905f5260205f20015f9091909190915090816107e29190611d5e565b506040518060e00160405280888152602001878152602001868152602001858152602001848152602001838152602001828152506003886040516108269190611ae6565b90815260200160405180910390205f820151815f0190816108479190611d5e565b50602082015181600101908161085d9190611d5e565b5060408201518160020190816108739190611d5e565b5060608201518160030190816108899190611d5e565b50608082015181600401908161089f9190611d5e565b5060a08201518160050190816108b59190611d5e565b5060c08201518160060190816108cb9190611d5e565b509050507f43a076616d42c8e0706525727a4946a0554fa3184c73b8a64b25bd1b4f9aac928787604051610900929190611f1e565b60405180910390a150505050505050565b6003818051602081018201805184825260208301602085012081835280955050505050505f91509050805f01805461094890611b91565b80601f016020809104026020016040519081016040528092919081815260200182805461097490611b91565b80156109bf5780601f10610996576101008083540402835291602001916109bf565b820191905f5260205f20905b8154815290600101906020018083116109a257829003601f168201915b5050505050908060010180546109d490611b91565b80601f0160208091040260200160405190810160405280929190818152602001828054610a0090611b91565b8015610a4b5780601f10610a2257610100808354040283529160200191610a4b565b820191905f5260205f20905b815481529060010190602001808311610a2e57829003601f168201915b505050505090806002018054610a6090611b91565b80601f0160208091040260200160405190810160405280929190818152602001828054610a8c90611b91565b8015610ad75780601f10610aae57610100808354040283529160200191610ad7565b820191905f5260205f20905b815481529060010190602001808311610aba57829003601f168201915b505050505090806003018054610aec90611b91565b80601f0160208091040260200160405190810160405280929190818152602001828054610b1890611b91565b8015610b635780601f10610b3a57610100808354040283529160200191610b63565b820191905f5260205f20905b815481529060010190602001808311610b4657829003601f168201915b505050505090806004018054610b7890611b91565b80601f0160208091040260200160405190810160405280929190818152602001828054610ba490611b91565b8015610bef5780601f10610bc657610100808354040283529160200191610bef565b820191905f5260205f20905b815481529060010190602001808311610bd257829003601f168201915b505050505090806005018054610c0490611b91565b80601f0160208091040260200160405190810160405280929190818152602001828054610c3090611b91565b8015610c7b5780601f10610c5257610100808354040283529160200191610c7b565b820191905f5260205f20905b815481529060010190602001808311610c5e57829003601f168201915b505050505090806006018054610c9090611b91565b80601f0160208091040260200160405190810160405280929190818152602001828054610cbc90611b91565b8015610d075780601f10610cde57610100808354040283529160200191610d07565b820191905f5260205f20905b815481529060010190602001808311610cea57829003601f168201915b5050505050905087565b6060600282604051610d239190611ae6565b9081526020016040518091039020805480602002602001604051908101604052809291908181526020015f905b8282101561104f578382905f5260205f2090600502016040518060a00160405290815f82018054610d8090611b91565b80601f0160208091040260200160405190810160405280929190818152602001828054610dac90611b91565b8015610df75780601f10610dce57610100808354040283529160200191610df7565b820191905f5260205f20905b815481529060010190602001808311610dda57829003601f168201915b50505050508152602001600182018054610e1090611b91565b80601f0160208091040260200160405190810160405280929190818152602001828054610e3c90611b91565b8015610e875780601f10610e5e57610100808354040283529160200191610e87565b820191905f5260205f20905b815481529060010190602001808311610e6a57829003601f168201915b50505050508152602001600282018054610ea090611b91565b80601f0160208091040260200160405190810160405280929190818152602001828054610ecc90611b91565b8015610f175780601f10610eee57610100808354040283529160200191610f17565b820191905f5260205f20905b815481529060010190602001808311610efa57829003601f168201915b50505050508152602001600382018054610f3090611b91565b80601f0160208091040260200160405190810160405280929190818152602001828054610f5c90611b91565b8015610fa75780601f10610f7e57610100808354040283529160200191610fa7565b820191905f5260205f20905b815481529060010190602001808311610f8a57829003601f168201915b50505050508152602001600482018054610fc090611b91565b80601f0160208091040260200160405190810160405280929190818152602001828054610fec90611b91565b80156110375780601f1061100e57610100808354040283529160200191611037565b820191905f5260205f20905b81548152906001019060200180831161101a57829003601f168201915b50505050508152505081526020019060010190610d50565b505050509050919050565b60605f805480602002602001604051908101604052809291908181526020015f905b82821015611124578382905f5260205f2001805461109990611b91565b80601f01602080910402602001604051908101604052809291908181526020018280546110c590611b91565b80156111105780601f106110e757610100808354040283529160200191611110565b820191905f5260205f20905b8154815290600101906020018083116110f357829003601f168201915b50505050508152602001906001019061107c565b50505050905090565b6001818051602081018201805184825260208301602085012081835280955050505050505f915054906101000a900460ff1681565b5f604051905090565b5f80fd5b5f80fd5b5f80fd5b5f80fd5b5f601f19601f8301169050919050565b7f4e487b71000000000000000000000000000000000000000000000000000000005f52604160045260245ffd5b6111c18261117b565b810181811067ffffffffffffffff821117156111e0576111df61118b565b5b80604052505050565b5f6111f2611162565b90506111fe82826111b8565b919050565b5f67ffffffffffffffff82111561121d5761121c61118b565b5b6112268261117b565b9050602081019050919050565b828183375f83830152505050565b5f61125361124e84611203565b6111e9565b90508281526020810184848401111561126f5761126e611177565b5b61127a848285611233565b509392505050565b5f82601f83011261129657611295611173565b5b81356112a6848260208601611241565b91505092915050565b5f805f805f8060c087890312156112c9576112c861116b565b5b5f87013567ffffffffffffffff8111156112e6576112e561116f565b5b6112f289828a01611282565b965050602087013567ffffffffffffffff8111156113135761131261116f565b5b61131f89828a01611282565b955050604087013567ffffffffffffffff8111156113405761133f61116f565b5b61134c89828a01611282565b945050606087013567ffffffffffffffff81111561136d5761136c61116f565b5b61137989828a01611282565b935050608087013567ffffffffffffffff81111561139a5761139961116f565b5b6113a689828a01611282565b92505060a087013567ffffffffffffffff8111156113c7576113c661116f565b5b6113d389828a01611282565b9150509295509295509295565b5f819050919050565b6113f2816113e0565b81146113fc575f80fd5b50565b5f8135905061140d816113e9565b92915050565b5f602082840312156114285761142761116b565b5b5f611435848285016113ff565b91505092915050565b5f81519050919050565b5f82825260208201905092915050565b5f5b8381101561147557808201518184015260208101905061145a565b5f8484015250505050565b5f61148a8261143e565b6114948185611448565b93506114a4818560208601611458565b6114ad8161117b565b840191505092915050565b5f6020820190508181035f8301526114d08184611480565b905092915050565b5f80604083850312156114ee576114ed61116b565b5b5f83013567ffffffffffffffff81111561150b5761150a61116f565b5b61151785828601611282565b9250506020611528858286016113ff565b9150509250929050565b5f60a0820190508181035f83015261154a8188611480565b9050818103602083015261155e8187611480565b905081810360408301526115728186611480565b905081810360608301526115868185611480565b9050818103608083015261159a8184611480565b90509695505050505050565b5f805f805f805f60e0888a0312156115c1576115c061116b565b5b5f88013567ffffffffffffffff8111156115de576115dd61116f565b5b6115ea8a828b01611282565b975050602088013567ffffffffffffffff81111561160b5761160a61116f565b5b6116178a828b01611282565b965050604088013567ffffffffffffffff8111156116385761163761116f565b5b6116448a828b01611282565b955050606088013567ffffffffffffffff8111156116655761166461116f565b5b6116718a828b01611282565b945050608088013567ffffffffffffffff8111156116925761169161116f565b5b61169e8a828b01611282565b93505060a088013567ffffffffffffffff8111156116bf576116be61116f565b5b6116cb8a828b01611282565b92505060c088013567ffffffffffffffff8111156116ec576116eb61116f565b5b6116f88a828b01611282565b91505092959891949750929550565b5f6020828403121561171c5761171b61116b565b5b5f82013567ffffffffffffffff8111156117395761173861116f565b5b61174584828501611282565b91505092915050565b5f60e0820190508181035f830152611766818a611480565b9050818103602083015261177a8189611480565b9050818103604083015261178e8188611480565b905081810360608301526117a28187611480565b905081810360808301526117b68186611480565b905081810360a08301526117ca8185611480565b905081810360c08301526117de8184611480565b905098975050505050505050565b5f81519050919050565b5f82825260208201905092915050565b5f819050602082019050919050565b5f82825260208201905092915050565b5f61182f8261143e565b6118398185611815565b9350611849818560208601611458565b6118528161117b565b840191505092915050565b5f60a083015f8301518482035f8601526118778282611825565b915050602083015184820360208601526118918282611825565b915050604083015184820360408601526118ab8282611825565b915050606083015184820360608601526118c58282611825565b915050608083015184820360808601526118df8282611825565b9150508091505092915050565b5f6118f7838361185d565b905092915050565b5f602082019050919050565b5f611915826117ec565b61191f81856117f6565b93508360208202850161193185611806565b805f5b8581101561196c578484038952815161194d85826118ec565b9450611958836118ff565b925060208a01995050600181019050611934565b50829750879550505050505092915050565b5f6020820190508181035f830152611996818461190b565b905092915050565b5f81519050919050565b5f82825260208201905092915050565b5f819050602082019050919050565b5f6119d28383611825565b905092915050565b5f602082019050919050565b5f6119f08261199e565b6119fa81856119a8565b935083602082028501611a0c856119b8565b805f5b85811015611a475784840389528151611a2885826119c7565b9450611a33836119da565b925060208a01995050600181019050611a0f565b50829750879550505050505092915050565b5f6020820190508181035f830152611a7181846119e6565b905092915050565b5f8115159050919050565b611a8d81611a79565b82525050565b5f602082019050611aa65f830184611a84565b92915050565b5f81905092915050565b5f611ac08261143e565b611aca8185611aac565b9350611ada818560208601611458565b80840191505092915050565b5f611af18284611ab6565b915081905092915050565b7f4d6120736f206b686f6e6720746f6e20746169000000000000000000000000005f82015250565b5f611b30601383611448565b9150611b3b82611afc565b602082019050919050565b5f6020820190508181035f830152611b5d81611b24565b9050919050565b7f4e487b71000000000000000000000000000000000000000000000000000000005f52602260045260245ffd5b5f6002820490506001821680611ba857607f821691505b602082108103611bbb57611bba611b64565b5b50919050565b5f819050815f5260205f209050919050565b5f6020601f8301049050919050565b5f82821b905092915050565b5f60088302611c1d7fffffffffffffffffffffffffffffffffffffffffffffffffffffffffffffffff82611be2565b611c278683611be2565b95508019841693508086168417925050509392505050565b5f819050919050565b5f611c62611c5d611c58846113e0565b611c3f565b6113e0565b9050919050565b5f819050919050565b611c7b83611c48565b611c8f611c8782611c69565b848454611bee565b825550505050565b5f90565b611ca3611c97565b611cae818484611c72565b505050565b5b81811015611cd157611cc65f82611c9b565b600181019050611cb4565b5050565b601f821115611d1657611ce781611bc1565b611cf084611bd3565b81016020851015611cff578190505b611d13611d0b85611bd3565b830182611cb3565b50505b505050565b5f82821c905092915050565b5f611d365f1984600802611d1b565b1980831691505092915050565b5f611d4e8383611d27565b9150826002028217905092915050565b611d678261143e565b67ffffffffffffffff811115611d8057611d7f61118b565b5b611d8a8254611b91565b611d95828285611cd5565b5f60209050601f831160018114611dc6575f8415611db4578287015190505b611dbe8582611d43565b865550611e25565b601f198416611dd486611bc1565b5f5b82811015611dfb57848901518255600182019150602085019450602081019050611dd6565b86831015611e185784890151611e14601f891682611d27565b8355505b6001600288020188555050505b505050505050565b5f60c0820190508181035f830152611e458189611480565b90508181036020830152611e598188611480565b90508181036040830152611e6d8187611480565b90508181036060830152611e818186611480565b90508181036080830152611e958185611480565b905081810360a0830152611ea98184611480565b9050979650505050505050565b7f4d6120736f20646120746f6e20746169000000000000000000000000000000005f82015250565b5f611eea601083611448565b9150611ef582611eb6565b602082019050919050565b5f6020820190508181035f830152611f1781611ede565b9050919050565b5f6040820190508181035f830152611f368185611480565b90508181036020830152611f4a8184611480565b9050939250505056fea2646970667358221220ef31aec34fc7aea509be918c490744a1ac21d84846d2ef22cab3c2fc3eef941264736f6c63430008150033",
  "immutableReferences": {},
  "source": "// SPDX-License-Identifier: MIT\npragma solidity ^0.8.0;\n\ncontract TheoDoiSanPham {\n    string[] public danhSachMaSanPham;\n    mapping(string => bool) public maSoSanPhamDaTonTai;\n    \n    struct TrangThai {\n        string ten;\n        string thoiGian;\n        string diaDiem;\n        string loaiTrangThai;\n        string moTaChiTiet;\n    }\n    \n    mapping(string => TrangThai[]) public lichSuTrangThaiSanPham;\n    \n    struct SanPham {\n        string id;\n        string ten;\n        string nhaSanXuat;\n        string loaiSanPham;\n        string kichThuoc;\n        string trongLuong;\n        string hanSuDung;\n    }\n    \n    mapping(string => SanPham) public danhSachSanPham;\n    \n    event SanPhamDaTao(string idSanPham, string tenSanPham);\n    event CapNhatTrangThai(string idSanPham, string tenTrangThai, string thoiGian, string diaDiem, string loaiTrangThai, string moTaChiTiet);\n    \n    function taoSanPham(string memory id, string memory ten, string memory nhaSanXuat, string memory loaiSanPham, string memory kichThuoc, string memory trongLuong, string memory hanSuDung) public {\n        require(!maSoSanPhamDaTonTai[id], \"Ma so da ton tai\");\n        maSoSanPhamDaTonTai[id] = true;\n        danhSachMaSanPham.push(id);\n        \n        danhSachSanPham[id] = SanPham(id, ten, nhaSanXuat, loaiSanPham, kichThuoc, trongLuong, hanSuDung);\n        emit SanPhamDaTao(id, ten);\n    }\n\n    function capNhatTrangThai(string memory idSanPham, string memory tenTrangThai, string memory thoiGian, string memory diaDiem, string memory loaiTrangThai, string memory moTaChiTiet) public {\n        require(maSoSanPhamDaTonTai[idSanPham], \"Ma so khong ton tai\");\n        \n        TrangThai memory trangThai = TrangThai(tenTrangThai, thoiGian, diaDiem, loaiTrangThai, moTaChiTiet);\n        lichSuTrangThaiSanPham[idSanPham].push(trangThai);\n        \n        emit CapNhatTrangThai(idSanPham, tenTrangThai, thoiGian, diaDiem, loaiTrangThai, moTaChiTiet);\n    }\n\n    function xemLichSuTrangThaiSanPham(string memory idSanPham) public view returns (TrangThai[] memory) {\n        return lichSuTrangThaiSanPham[idSanPham];\n    }\n\n    function layDanhSachSanPham() public view returns (string[] memory) {\n        return danhSachMaSanPham;\n    }\n}\n",
  "sourcePath": "/workspaces/BlockChain/contracts/theodoiSP.sol",
  "compiler": {
    "name": "solc",
    "version": "0.8.21+commit.d9974bed.Emscripten.clang"
  },
  "schemaVersion": "3.4.16",
  "updatedAt": "2024-08-05T03:50:29.195Z",
  "devdoc": {
    "kind": "dev",
    "methods": {},
    "version": 1
  },
  "userdoc": {
    "kind": "user",
    "methods": {},
    "version": 1
  }
}